{
  "abi": [
    {
      "inputs": [
        {
          "internalType": "uint256",
          "name": "",
          "type": "uint256"
        }
      ],
      "name": "campaigns",
      "outputs": [
        {
          "internalType": "contract Campaign",
          "name": "",
          "type": "address"
        }
      ],
      "stateMutability": "view",
      "type": "function"
    },
    {
      "inputs": [
        {
          "internalType": "uint256",
          "name": "minimum",
          "type": "uint256"
        }
      ],
      "name": "createCampaign",
      "outputs": [],
      "stateMutability": "nonpayable",
      "type": "function"
    },
    {
      "inputs": [],
      "name": "getDeployedCampaigns",
      "outputs": [
        {
          "internalType": "contract Campaign[]",
          "name": "",
          "type": "address[]"
        }
      ],
      "stateMutability": "view",
      "type": "function"
    }
  ],
  "devdoc": {
    "kind": "dev",
    "methods": {},
    "version": 1
  },
  "evm": {
    "assembly": "    /* \"Campaign.sol\":70:396  contract Factory {... */\n  mstore(0x40, 0x80)\n  callvalue\n  dup1\n  iszero\n  tag_1\n  jumpi\n  0x00\n  dup1\n  revert\ntag_1:\n  pop\n  dataSize(sub_0)\n  dup1\n  dataOffset(sub_0)\n  0x00\n  codecopy\n  0x00\n  return\nstop\n\nsub_0: assembly {\n        /* \"Campaign.sol\":70:396  contract Factory {... */\n      mstore(0x40, 0x80)\n      callvalue\n      dup1\n      iszero\n      tag_1\n      jumpi\n      0x00\n      dup1\n      revert\n    tag_1:\n      pop\n      jumpi(tag_2, lt(calldatasize, 0x04))\n      shr(0xe0, calldataload(0x00))\n      dup1\n      0x141961bc\n      eq\n      tag_3\n      jumpi\n      dup1\n      0x4acb9d4f\n      eq\n      tag_4\n      jumpi\n      dup1\n      0xa3303a75\n      eq\n      tag_5\n      jumpi\n    tag_2:\n      0x00\n      dup1\n      revert\n        /* \"Campaign.sol\":93:120  Campaign[] public campaigns */\n    tag_3:\n      tag_6\n      0x04\n      dup1\n      calldatasize\n      sub\n      dup2\n      add\n      swap1\n      tag_7\n      swap2\n      swap1\n      tag_8\n      jump\t// in\n    tag_7:\n      tag_9\n      jump\t// in\n    tag_6:\n      mload(0x40)\n      tag_10\n      swap2\n      swap1\n      tag_11\n      jump\t// in\n    tag_10:\n      mload(0x40)\n      dup1\n      swap2\n      sub\n      swap1\n      return\n        /* \"Campaign.sol\":289:394  function getDeployedCampaigns() public view returns (Campaign[] memory) {... */\n    tag_4:\n      tag_12\n      tag_13\n      jump\t// in\n    tag_12:\n      mload(0x40)\n      tag_14\n      swap2\n      swap1\n      tag_15\n      jump\t// in\n    tag_14:\n      mload(0x40)\n      dup1\n      swap2\n      sub\n      swap1\n      return\n        /* \"Campaign.sol\":131:279  function createCampaign(uint minimum)public {... */\n    tag_5:\n      tag_16\n      0x04\n      dup1\n      calldatasize\n      sub\n      dup2\n      add\n      swap1\n      tag_17\n      swap2\n      swap1\n      tag_8\n      jump\t// in\n    tag_17:\n      tag_18\n      jump\t// in\n    tag_16:\n      stop\n        /* \"Campaign.sol\":93:120  Campaign[] public campaigns */\n    tag_9:\n      0x00\n      dup2\n      dup2\n      sload\n      dup2\n      lt\n      tag_19\n      jumpi\n      0x00\n      dup1\n      revert\n    tag_19:\n      swap1\n      0x00\n      mstore\n      keccak256(0x00, 0x20)\n      add\n      0x00\n      swap2\n      pop\n      sload\n      swap1\n      0x0100\n      exp\n      swap1\n      div\n      0xffffffffffffffffffffffffffffffffffffffff\n      and\n      dup2\n      jump\t// out\n        /* \"Campaign.sol\":289:394  function getDeployedCampaigns() public view returns (Campaign[] memory) {... */\n    tag_13:\n        /* \"Campaign.sol\":342:359  Campaign[] memory */\n      0x60\n        /* \"Campaign.sol\":378:387  campaigns */\n      0x00\n        /* \"Campaign.sol\":371:387  return campaigns */\n      dup1\n      sload\n      dup1\n      0x20\n      mul\n      0x20\n      add\n      mload(0x40)\n      swap1\n      dup2\n      add\n      0x40\n      mstore\n      dup1\n      swap3\n      swap2\n      swap1\n      dup2\n      dup2\n      mstore\n      0x20\n      add\n      dup3\n      dup1\n      sload\n      dup1\n      iszero\n      tag_22\n      jumpi\n      0x20\n      mul\n      dup3\n      add\n      swap2\n      swap1\n      0x00\n      mstore\n      keccak256(0x00, 0x20)\n      swap1\n    tag_23:\n      dup2\n      0x00\n      swap1\n      sload\n      swap1\n      0x0100\n      exp\n      swap1\n      div\n      0xffffffffffffffffffffffffffffffffffffffff\n      and\n      0xffffffffffffffffffffffffffffffffffffffff\n      and\n      dup2\n      mstore\n      0x20\n      add\n      swap1\n      0x01\n      add\n      swap1\n      dup1\n      dup4\n      gt\n      tag_23\n      jumpi\n    tag_22:\n      pop\n      pop\n      pop\n      pop\n      pop\n      swap1\n      pop\n        /* \"Campaign.sol\":289:394  function getDeployedCampaigns() public view returns (Campaign[] memory) {... */\n      swap1\n      jump\t// out\n        /* \"Campaign.sol\":131:279  function createCampaign(uint minimum)public {... */\n    tag_18:\n        /* \"Campaign.sol\":185:202  Campaign campaign */\n      0x00\n        /* \"Campaign.sol\":218:225  minimum */\n      dup2\n        /* \"Campaign.sol\":227:237  msg.sender */\n      caller\n        /* \"Campaign.sol\":205:238  new Campaign(minimum, msg.sender) */\n      mload(0x40)\n      tag_25\n      swap1\n      tag_26\n      jump\t// in\n    tag_25:\n      tag_27\n      swap3\n      swap2\n      swap1\n      tag_28\n      jump\t// in\n    tag_27:\n      mload(0x40)\n      dup1\n      swap2\n      sub\n      swap1\n      0x00\n      create\n      dup1\n      iszero\n      dup1\n      iszero\n      tag_29\n      jumpi\n      returndatasize\n      0x00\n      dup1\n      returndatacopy\n      revert(0x00, returndatasize)\n    tag_29:\n      pop\n        /* \"Campaign.sol\":185:238  Campaign campaign = new Campaign(minimum, msg.sender) */\n      swap1\n      pop\n        /* \"Campaign.sol\":248:257  campaigns */\n      0x00\n        /* \"Campaign.sol\":263:271  campaign */\n      dup2\n        /* \"Campaign.sol\":248:272  campaigns.push(campaign) */\n      swap1\n      dup1\n      0x01\n      dup2\n      sload\n      add\n      dup1\n      dup3\n      sstore\n      dup1\n      swap2\n      pop\n      pop\n      0x01\n      swap1\n      sub\n      swap1\n      0x00\n      mstore\n      keccak256(0x00, 0x20)\n      add\n      0x00\n      swap1\n      swap2\n      swap1\n      swap2\n      swap1\n      swap2\n      0x0100\n      exp\n      dup2\n      sload\n      dup2\n      0xffffffffffffffffffffffffffffffffffffffff\n      mul\n      not\n      and\n      swap1\n      dup4\n      0xffffffffffffffffffffffffffffffffffffffff\n      and\n      mul\n      or\n      swap1\n      sstore\n      pop\n        /* \"Campaign.sol\":131:279  function createCampaign(uint minimum)public {... */\n      pop\n      pop\n      jump\t// out\n    tag_26:\n      dataSize(sub_0)\n      dup1\n      dataOffset(sub_0)\n      dup4\n      codecopy\n      add\n      swap1\n      jump\t// out\n        /* \"#utility.yul\":7:146   */\n    tag_32:\n      0x00\n        /* \"#utility.yul\":91:97   */\n      dup2\n        /* \"#utility.yul\":78:98   */\n      calldataload\n        /* \"#utility.yul\":69:98   */\n      swap1\n      pop\n        /* \"#utility.yul\":107:140   */\n      tag_34\n        /* \"#utility.yul\":134:139   */\n      dup2\n        /* \"#utility.yul\":107:140   */\n      tag_35\n      jump\t// in\n    tag_34:\n        /* \"#utility.yul\":59:146   */\n      swap3\n      swap2\n      pop\n      pop\n      jump\t// out\n        /* \"#utility.yul\":152:414   */\n    tag_8:\n      0x00\n        /* \"#utility.yul\":260:262   */\n      0x20\n        /* \"#utility.yul\":248:257   */\n      dup3\n        /* \"#utility.yul\":239:246   */\n      dup5\n        /* \"#utility.yul\":235:258   */\n      sub\n        /* \"#utility.yul\":231:263   */\n      slt\n        /* \"#utility.yul\":228:230   */\n      iszero\n      tag_37\n      jumpi\n        /* \"#utility.yul\":276:277   */\n      0x00\n        /* \"#utility.yul\":273:274   */\n      dup1\n        /* \"#utility.yul\":266:278   */\n      revert\n        /* \"#utility.yul\":228:230   */\n    tag_37:\n        /* \"#utility.yul\":319:320   */\n      0x00\n        /* \"#utility.yul\":344:397   */\n      tag_38\n        /* \"#utility.yul\":389:396   */\n      dup5\n        /* \"#utility.yul\":380:386   */\n      dup3\n        /* \"#utility.yul\":369:378   */\n      dup6\n        /* \"#utility.yul\":365:387   */\n      add\n        /* \"#utility.yul\":344:397   */\n      tag_32\n      jump\t// in\n    tag_38:\n        /* \"#utility.yul\":334:397   */\n      swap2\n      pop\n        /* \"#utility.yul\":290:407   */\n      pop\n        /* \"#utility.yul\":218:414   */\n      swap3\n      swap2\n      pop\n      pop\n      jump\t// out\n        /* \"#utility.yul\":420:631   */\n    tag_39:\n      0x00\n        /* \"#utility.yul\":526:588   */\n      tag_41\n        /* \"#utility.yul\":584:587   */\n      dup4\n        /* \"#utility.yul\":576:582   */\n      dup4\n        /* \"#utility.yul\":526:588   */\n      tag_42\n      jump\t// in\n    tag_41:\n        /* \"#utility.yul\":620:624   */\n      0x20\n        /* \"#utility.yul\":615:618   */\n      dup4\n        /* \"#utility.yul\":611:625   */\n      add\n        /* \"#utility.yul\":597:625   */\n      swap1\n      pop\n        /* \"#utility.yul\":516:631   */\n      swap3\n      swap2\n      pop\n      pop\n      jump\t// out\n        /* \"#utility.yul\":637:755   */\n    tag_43:\n        /* \"#utility.yul\":724:748   */\n      tag_45\n        /* \"#utility.yul\":742:747   */\n      dup2\n        /* \"#utility.yul\":724:748   */\n      tag_46\n      jump\t// in\n    tag_45:\n        /* \"#utility.yul\":719:722   */\n      dup3\n        /* \"#utility.yul\":712:749   */\n      mstore\n        /* \"#utility.yul\":702:755   */\n      pop\n      pop\n      jump\t// out\n        /* \"#utility.yul\":801:1613   */\n    tag_47:\n      0x00\n        /* \"#utility.yul\":965:1035   */\n      tag_49\n        /* \"#utility.yul\":1029:1034   */\n      dup3\n        /* \"#utility.yul\":965:1035   */\n      tag_50\n      jump\t// in\n    tag_49:\n        /* \"#utility.yul\":1051:1137   */\n      tag_51\n        /* \"#utility.yul\":1130:1136   */\n      dup2\n        /* \"#utility.yul\":1125:1128   */\n      dup6\n        /* \"#utility.yul\":1051:1137   */\n      tag_52\n      jump\t// in\n    tag_51:\n        /* \"#utility.yul\":1044:1137   */\n      swap4\n      pop\n        /* \"#utility.yul\":1161:1233   */\n      tag_53\n        /* \"#utility.yul\":1227:1232   */\n      dup4\n        /* \"#utility.yul\":1161:1233   */\n      tag_54\n      jump\t// in\n    tag_53:\n        /* \"#utility.yul\":1256:1263   */\n      dup1\n        /* \"#utility.yul\":1287:1288   */\n      0x00\n        /* \"#utility.yul\":1272:1588   */\n    tag_55:\n        /* \"#utility.yul\":1297:1303   */\n      dup4\n        /* \"#utility.yul\":1294:1295   */\n      dup2\n        /* \"#utility.yul\":1291:1304   */\n      lt\n        /* \"#utility.yul\":1272:1588   */\n      iszero\n      tag_57\n      jumpi\n        /* \"#utility.yul\":1373:1379   */\n      dup2\n        /* \"#utility.yul\":1367:1380   */\n      mload\n        /* \"#utility.yul\":1400:1479   */\n      tag_58\n        /* \"#utility.yul\":1475:1478   */\n      dup9\n        /* \"#utility.yul\":1460:1473   */\n      dup3\n        /* \"#utility.yul\":1400:1479   */\n      tag_39\n      jump\t// in\n    tag_58:\n        /* \"#utility.yul\":1393:1479   */\n      swap8\n      pop\n        /* \"#utility.yul\":1502:1578   */\n      tag_59\n        /* \"#utility.yul\":1571:1577   */\n      dup4\n        /* \"#utility.yul\":1502:1578   */\n      tag_60\n      jump\t// in\n    tag_59:\n        /* \"#utility.yul\":1492:1578   */\n      swap3\n      pop\n        /* \"#utility.yul\":1332:1588   */\n      pop\n        /* \"#utility.yul\":1319:1320   */\n      0x01\n        /* \"#utility.yul\":1316:1317   */\n      dup2\n        /* \"#utility.yul\":1312:1321   */\n      add\n        /* \"#utility.yul\":1307:1321   */\n      swap1\n      pop\n        /* \"#utility.yul\":1272:1588   */\n      jump(tag_55)\n    tag_57:\n        /* \"#utility.yul\":1276:1290   */\n      pop\n        /* \"#utility.yul\":1604:1607   */\n      dup6\n        /* \"#utility.yul\":1597:1607   */\n      swap4\n      pop\n        /* \"#utility.yul\":941:1613   */\n      pop\n      pop\n      pop\n      swap3\n      swap2\n      pop\n      pop\n      jump\t// out\n        /* \"#utility.yul\":1619:1772   */\n    tag_42:\n        /* \"#utility.yul\":1712:1765   */\n      tag_62\n        /* \"#utility.yul\":1759:1764   */\n      dup2\n        /* \"#utility.yul\":1712:1765   */\n      tag_63\n      jump\t// in\n    tag_62:\n        /* \"#utility.yul\":1707:1710   */\n      dup3\n        /* \"#utility.yul\":1700:1766   */\n      mstore\n        /* \"#utility.yul\":1690:1772   */\n      pop\n      pop\n      jump\t// out\n        /* \"#utility.yul\":1778:1941   */\n    tag_64:\n        /* \"#utility.yul\":1881:1934   */\n      tag_66\n        /* \"#utility.yul\":1928:1933   */\n      dup2\n        /* \"#utility.yul\":1881:1934   */\n      tag_63\n      jump\t// in\n    tag_66:\n        /* \"#utility.yul\":1876:1879   */\n      dup3\n        /* \"#utility.yul\":1869:1935   */\n      mstore\n        /* \"#utility.yul\":1859:1941   */\n      pop\n      pop\n      jump\t// out\n        /* \"#utility.yul\":1947:2065   */\n    tag_67:\n        /* \"#utility.yul\":2034:2058   */\n      tag_69\n        /* \"#utility.yul\":2052:2057   */\n      dup2\n        /* \"#utility.yul\":2034:2058   */\n      tag_70\n      jump\t// in\n    tag_69:\n        /* \"#utility.yul\":2029:2032   */\n      dup3\n        /* \"#utility.yul\":2022:2059   */\n      mstore\n        /* \"#utility.yul\":2012:2065   */\n      pop\n      pop\n      jump\t// out\n        /* \"#utility.yul\":2071:2476   */\n    tag_15:\n      0x00\n        /* \"#utility.yul\":2268:2270   */\n      0x20\n        /* \"#utility.yul\":2257:2266   */\n      dup3\n        /* \"#utility.yul\":2253:2271   */\n      add\n        /* \"#utility.yul\":2245:2271   */\n      swap1\n      pop\n        /* \"#utility.yul\":2317:2326   */\n      dup2\n        /* \"#utility.yul\":2311:2315   */\n      dup2\n        /* \"#utility.yul\":2307:2327   */\n      sub\n        /* \"#utility.yul\":2303:2304   */\n      0x00\n        /* \"#utility.yul\":2292:2301   */\n      dup4\n        /* \"#utility.yul\":2288:2305   */\n      add\n        /* \"#utility.yul\":2281:2328   */\n      mstore\n        /* \"#utility.yul\":2345:2469   */\n      tag_72\n        /* \"#utility.yul\":2464:2468   */\n      dup2\n        /* \"#utility.yul\":2455:2461   */\n      dup5\n        /* \"#utility.yul\":2345:2469   */\n      tag_47\n      jump\t// in\n    tag_72:\n        /* \"#utility.yul\":2337:2469   */\n      swap1\n      pop\n        /* \"#utility.yul\":2235:2476   */\n      swap3\n      swap2\n      pop\n      pop\n      jump\t// out\n        /* \"#utility.yul\":2482:2736   */\n    tag_11:\n      0x00\n        /* \"#utility.yul\":2629:2631   */\n      0x20\n        /* \"#utility.yul\":2618:2627   */\n      dup3\n        /* \"#utility.yul\":2614:2632   */\n      add\n        /* \"#utility.yul\":2606:2632   */\n      swap1\n      pop\n        /* \"#utility.yul\":2642:2729   */\n      tag_74\n        /* \"#utility.yul\":2726:2727   */\n      0x00\n        /* \"#utility.yul\":2715:2724   */\n      dup4\n        /* \"#utility.yul\":2711:2728   */\n      add\n        /* \"#utility.yul\":2702:2708   */\n      dup5\n        /* \"#utility.yul\":2642:2729   */\n      tag_64\n      jump\t// in\n    tag_74:\n        /* \"#utility.yul\":2596:2736   */\n      swap3\n      swap2\n      pop\n      pop\n      jump\t// out\n        /* \"#utility.yul\":2742:3074   */\n    tag_28:\n      0x00\n        /* \"#utility.yul\":2901:2903   */\n      0x40\n        /* \"#utility.yul\":2890:2899   */\n      dup3\n        /* \"#utility.yul\":2886:2904   */\n      add\n        /* \"#utility.yul\":2878:2904   */\n      swap1\n      pop\n        /* \"#utility.yul\":2914:2985   */\n      tag_76\n        /* \"#utility.yul\":2982:2983   */\n      0x00\n        /* \"#utility.yul\":2971:2980   */\n      dup4\n        /* \"#utility.yul\":2967:2984   */\n      add\n        /* \"#utility.yul\":2958:2964   */\n      dup6\n        /* \"#utility.yul\":2914:2985   */\n      tag_67\n      jump\t// in\n    tag_76:\n        /* \"#utility.yul\":2995:3067   */\n      tag_77\n        /* \"#utility.yul\":3063:3065   */\n      0x20\n        /* \"#utility.yul\":3052:3061   */\n      dup4\n        /* \"#utility.yul\":3048:3066   */\n      add\n        /* \"#utility.yul\":3039:3045   */\n      dup5\n        /* \"#utility.yul\":2995:3067   */\n      tag_43\n      jump\t// in\n    tag_77:\n        /* \"#utility.yul\":2868:3074   */\n      swap4\n      swap3\n      pop\n      pop\n      pop\n      jump\t// out\n        /* \"#utility.yul\":3080:3228   */\n    tag_54:\n      0x00\n        /* \"#utility.yul\":3186:3189   */\n      dup2\n        /* \"#utility.yul\":3178:3189   */\n      swap1\n      pop\n        /* \"#utility.yul\":3216:3220   */\n      0x20\n        /* \"#utility.yul\":3211:3214   */\n      dup3\n        /* \"#utility.yul\":3207:3221   */\n      add\n        /* \"#utility.yul\":3199:3221   */\n      swap1\n      pop\n        /* \"#utility.yul\":3168:3228   */\n      swap2\n      swap1\n      pop\n      jump\t// out\n        /* \"#utility.yul\":3234:3364   */\n    tag_50:\n      0x00\n        /* \"#utility.yul\":3351:3356   */\n      dup2\n        /* \"#utility.yul\":3345:3357   */\n      mload\n        /* \"#utility.yul\":3335:3357   */\n      swap1\n      pop\n        /* \"#utility.yul\":3324:3364   */\n      swap2\n      swap1\n      pop\n      jump\t// out\n        /* \"#utility.yul\":3370:3499   */\n    tag_60:\n      0x00\n        /* \"#utility.yul\":3488:3492   */\n      0x20\n        /* \"#utility.yul\":3483:3486   */\n      dup3\n        /* \"#utility.yul\":3479:3493   */\n      add\n        /* \"#utility.yul\":3471:3493   */\n      swap1\n      pop\n        /* \"#utility.yul\":3461:3499   */\n      swap2\n      swap1\n      pop\n      jump\t// out\n        /* \"#utility.yul\":3505:3689   */\n    tag_52:\n      0x00\n        /* \"#utility.yul\":3638:3644   */\n      dup3\n        /* \"#utility.yul\":3633:3636   */\n      dup3\n        /* \"#utility.yul\":3626:3645   */\n      mstore\n        /* \"#utility.yul\":3678:3682   */\n      0x20\n        /* \"#utility.yul\":3673:3676   */\n      dup3\n        /* \"#utility.yul\":3669:3683   */\n      add\n        /* \"#utility.yul\":3654:3683   */\n      swap1\n      pop\n        /* \"#utility.yul\":3616:3689   */\n      swap3\n      swap2\n      pop\n      pop\n      jump\t// out\n        /* \"#utility.yul\":3695:3791   */\n    tag_46:\n      0x00\n        /* \"#utility.yul\":3761:3785   */\n      tag_83\n        /* \"#utility.yul\":3779:3784   */\n      dup3\n        /* \"#utility.yul\":3761:3785   */\n      tag_84\n      jump\t// in\n    tag_83:\n        /* \"#utility.yul\":3750:3785   */\n      swap1\n      pop\n        /* \"#utility.yul\":3740:3791   */\n      swap2\n      swap1\n      pop\n      jump\t// out\n        /* \"#utility.yul\":3797:3923   */\n    tag_84:\n      0x00\n        /* \"#utility.yul\":3874:3916   */\n      0xffffffffffffffffffffffffffffffffffffffff\n        /* \"#utility.yul\":3867:3872   */\n      dup3\n        /* \"#utility.yul\":3863:3917   */\n      and\n        /* \"#utility.yul\":3852:3917   */\n      swap1\n      pop\n        /* \"#utility.yul\":3842:3923   */\n      swap2\n      swap1\n      pop\n      jump\t// out\n        /* \"#utility.yul\":3929:4006   */\n    tag_70:\n      0x00\n        /* \"#utility.yul\":3995:4000   */\n      dup2\n        /* \"#utility.yul\":3984:4000   */\n      swap1\n      pop\n        /* \"#utility.yul\":3974:4006   */\n      swap2\n      swap1\n      pop\n      jump\t// out\n        /* \"#utility.yul\":4012:4170   */\n    tag_63:\n      0x00\n        /* \"#utility.yul\":4111:4164   */\n      tag_88\n        /* \"#utility.yul\":4158:4163   */\n      dup3\n        /* \"#utility.yul\":4111:4164   */\n      tag_89\n      jump\t// in\n    tag_88:\n        /* \"#utility.yul\":4098:4164   */\n      swap1\n      pop\n        /* \"#utility.yul\":4088:4170   */\n      swap2\n      swap1\n      pop\n      jump\t// out\n        /* \"#utility.yul\":4176:4305   */\n    tag_89:\n      0x00\n        /* \"#utility.yul\":4275:4299   */\n      tag_91\n        /* \"#utility.yul\":4293:4298   */\n      dup3\n        /* \"#utility.yul\":4275:4299   */\n      tag_84\n      jump\t// in\n    tag_91:\n        /* \"#utility.yul\":4262:4299   */\n      swap1\n      pop\n        /* \"#utility.yul\":4252:4305   */\n      swap2\n      swap1\n      pop\n      jump\t// out\n        /* \"#utility.yul\":4311:4433   */\n    tag_35:\n        /* \"#utility.yul\":4384:4408   */\n      tag_93\n        /* \"#utility.yul\":4402:4407   */\n      dup2\n        /* \"#utility.yul\":4384:4408   */\n      tag_70\n      jump\t// in\n    tag_93:\n        /* \"#utility.yul\":4377:4382   */\n      dup2\n        /* \"#utility.yul\":4374:4409   */\n      eq\n        /* \"#utility.yul\":4364:4366   */\n      tag_94\n      jumpi\n        /* \"#utility.yul\":4423:4424   */\n      0x00\n        /* \"#utility.yul\":4420:4421   */\n      dup1\n        /* \"#utility.yul\":4413:4425   */\n      revert\n        /* \"#utility.yul\":4364:4366   */\n    tag_94:\n        /* \"#utility.yul\":4354:4433   */\n      pop\n      jump\t// out\n    stop\n\n    sub_0: assembly {\n            /* \"Campaign.sol\":398:2617  contract Campaign {... */\n          mstore(0x40, 0x80)\n            /* \"Campaign.sol\":969:1084  constructor(uint minimum, address creator){... */\n          callvalue\n          dup1\n          iszero\n          tag_1\n          jumpi\n          0x00\n          dup1\n          revert\n        tag_1:\n          pop\n          mload(0x40)\n          sub(codesize, bytecodeSize)\n          dup1\n          bytecodeSize\n          dup4\n          codecopy\n          dup2\n          dup2\n          add\n          0x40\n          mstore\n          dup2\n          add\n          swap1\n          tag_2\n          swap2\n          swap1\n          tag_3\n          jump\t// in\n        tag_2:\n            /* \"Campaign.sol\":1031:1038  creator */\n          dup1\n            /* \"Campaign.sol\":1021:1028  manager */\n          0x02\n          0x00\n            /* \"Campaign.sol\":1021:1038  manager = creator */\n          0x0100\n          exp\n          dup2\n          sload\n          dup2\n          0xffffffffffffffffffffffffffffffffffffffff\n          mul\n          not\n          and\n          swap1\n          dup4\n          0xffffffffffffffffffffffffffffffffffffffff\n          and\n          mul\n          or\n          swap1\n          sstore\n          pop\n            /* \"Campaign.sol\":1070:1077  minimum */\n          dup2\n            /* \"Campaign.sol\":1048:1067  minimumContribution */\n          0x03\n            /* \"Campaign.sol\":1048:1077  minimumContribution = minimum */\n          dup2\n          swap1\n          sstore\n          pop\n            /* \"Campaign.sol\":969:1084  constructor(uint minimum, address creator){... */\n          pop\n          pop\n            /* \"Campaign.sol\":398:2617  contract Campaign {... */\n          jump(tag_6)\n            /* \"#utility.yul\":7:150   */\n        tag_8:\n          0x00\n            /* \"#utility.yul\":95:101   */\n          dup2\n            /* \"#utility.yul\":89:102   */\n          mload\n            /* \"#utility.yul\":80:102   */\n          swap1\n          pop\n            /* \"#utility.yul\":111:144   */\n          tag_10\n            /* \"#utility.yul\":138:143   */\n          dup2\n            /* \"#utility.yul\":111:144   */\n          tag_11\n          jump\t// in\n        tag_10:\n            /* \"#utility.yul\":70:150   */\n          swap3\n          swap2\n          pop\n          pop\n          jump\t// out\n            /* \"#utility.yul\":156:299   */\n        tag_12:\n          0x00\n            /* \"#utility.yul\":244:250   */\n          dup2\n            /* \"#utility.yul\":238:251   */\n          mload\n            /* \"#utility.yul\":229:251   */\n          swap1\n          pop\n            /* \"#utility.yul\":260:293   */\n          tag_14\n            /* \"#utility.yul\":287:292   */\n          dup2\n            /* \"#utility.yul\":260:293   */\n          tag_15\n          jump\t// in\n        tag_14:\n            /* \"#utility.yul\":219:299   */\n          swap3\n          swap2\n          pop\n          pop\n          jump\t// out\n            /* \"#utility.yul\":305:745   */\n        tag_3:\n          0x00\n          dup1\n            /* \"#utility.yul\":441:443   */\n          0x40\n            /* \"#utility.yul\":429:438   */\n          dup4\n            /* \"#utility.yul\":420:427   */\n          dup6\n            /* \"#utility.yul\":416:439   */\n          sub\n            /* \"#utility.yul\":412:444   */\n          slt\n            /* \"#utility.yul\":409:411   */\n          iszero\n          tag_17\n          jumpi\n            /* \"#utility.yul\":457:458   */\n          0x00\n            /* \"#utility.yul\":454:455   */\n          dup1\n            /* \"#utility.yul\":447:459   */\n          revert\n            /* \"#utility.yul\":409:411   */\n        tag_17:\n            /* \"#utility.yul\":500:501   */\n          0x00\n            /* \"#utility.yul\":525:589   */\n          tag_18\n            /* \"#utility.yul\":581:588   */\n          dup6\n            /* \"#utility.yul\":572:578   */\n          dup3\n            /* \"#utility.yul\":561:570   */\n          dup7\n            /* \"#utility.yul\":557:579   */\n          add\n            /* \"#utility.yul\":525:589   */\n          tag_12\n          jump\t// in\n        tag_18:\n            /* \"#utility.yul\":515:589   */\n          swap3\n          pop\n            /* \"#utility.yul\":471:599   */\n          pop\n            /* \"#utility.yul\":638:640   */\n          0x20\n            /* \"#utility.yul\":664:728   */\n          tag_19\n            /* \"#utility.yul\":720:727   */\n          dup6\n            /* \"#utility.yul\":711:717   */\n          dup3\n            /* \"#utility.yul\":700:709   */\n          dup7\n            /* \"#utility.yul\":696:718   */\n          add\n            /* \"#utility.yul\":664:728   */\n          tag_8\n          jump\t// in\n        tag_19:\n            /* \"#utility.yul\":654:728   */\n          swap2\n          pop\n            /* \"#utility.yul\":609:738   */\n          pop\n            /* \"#utility.yul\":399:745   */\n          swap3\n          pop\n          swap3\n          swap1\n          pop\n          jump\t// out\n            /* \"#utility.yul\":751:847   */\n        tag_20:\n          0x00\n            /* \"#utility.yul\":817:841   */\n          tag_22\n            /* \"#utility.yul\":835:840   */\n          dup3\n            /* \"#utility.yul\":817:841   */\n          tag_23\n          jump\t// in\n        tag_22:\n            /* \"#utility.yul\":806:841   */\n          swap1\n          pop\n            /* \"#utility.yul\":796:847   */\n          swap2\n          swap1\n          pop\n          jump\t// out\n            /* \"#utility.yul\":853:979   */\n        tag_23:\n          0x00\n            /* \"#utility.yul\":930:972   */\n          0xffffffffffffffffffffffffffffffffffffffff\n            /* \"#utility.yul\":923:928   */\n          dup3\n            /* \"#utility.yul\":919:973   */\n          and\n            /* \"#utility.yul\":908:973   */\n          swap1\n          pop\n            /* \"#utility.yul\":898:979   */\n          swap2\n          swap1\n          pop\n          jump\t// out\n            /* \"#utility.yul\":985:1062   */\n        tag_25:\n          0x00\n            /* \"#utility.yul\":1051:1056   */\n          dup2\n            /* \"#utility.yul\":1040:1056   */\n          swap1\n          pop\n            /* \"#utility.yul\":1030:1062   */\n          swap2\n          swap1\n          pop\n          jump\t// out\n            /* \"#utility.yul\":1068:1190   */\n        tag_11:\n            /* \"#utility.yul\":1141:1165   */\n          tag_28\n            /* \"#utility.yul\":1159:1164   */\n          dup2\n            /* \"#utility.yul\":1141:1165   */\n          tag_20\n          jump\t// in\n        tag_28:\n            /* \"#utility.yul\":1134:1139   */\n          dup2\n            /* \"#utility.yul\":1131:1166   */\n          eq\n            /* \"#utility.yul\":1121:1123   */\n          tag_29\n          jumpi\n            /* \"#utility.yul\":1180:1181   */\n          0x00\n            /* \"#utility.yul\":1177:1178   */\n          dup1\n            /* \"#utility.yul\":1170:1182   */\n          revert\n            /* \"#utility.yul\":1121:1123   */\n        tag_29:\n            /* \"#utility.yul\":1111:1190   */\n          pop\n          jump\t// out\n            /* \"#utility.yul\":1196:1318   */\n        tag_15:\n            /* \"#utility.yul\":1269:1293   */\n          tag_31\n            /* \"#utility.yul\":1287:1292   */\n          dup2\n            /* \"#utility.yul\":1269:1293   */\n          tag_25\n          jump\t// in\n        tag_31:\n            /* \"#utility.yul\":1262:1267   */\n          dup2\n            /* \"#utility.yul\":1259:1294   */\n          eq\n            /* \"#utility.yul\":1249:1251   */\n          tag_32\n          jumpi\n            /* \"#utility.yul\":1308:1309   */\n          0x00\n            /* \"#utility.yul\":1305:1306   */\n          dup1\n            /* \"#utility.yul\":1298:1310   */\n          revert\n            /* \"#utility.yul\":1249:1251   */\n        tag_32:\n            /* \"#utility.yul\":1239:1318   */\n          pop\n          jump\t// out\n            /* \"Campaign.sol\":398:2617  contract Campaign {... */\n        tag_6:\n          dataSize(sub_0)\n          dup1\n          dataOffset(sub_0)\n          0x00\n          codecopy\n          0x00\n          return\n        stop\n\n        sub_0: assembly {\n                /* \"Campaign.sol\":398:2617  contract Campaign {... */\n              mstore(0x40, 0x80)\n              jumpi(tag_1, lt(calldatasize, 0x04))\n              shr(0xe0, calldataload(0x00))\n              dup1\n              0x82fde093\n              gt\n              tag_11\n              jumpi\n              dup1\n              0x82fde093\n              eq\n              tag_6\n              jumpi\n              dup1\n              0x8a9cfd55\n              eq\n              tag_7\n              jumpi\n              dup1\n              0x937e09b1\n              eq\n              tag_8\n              jumpi\n              dup1\n              0xd7bb99ba\n              eq\n              tag_9\n              jumpi\n              dup1\n              0xd7d1bbdb\n              eq\n              tag_10\n              jumpi\n              jump(tag_1)\n            tag_11:\n              dup1\n              0x03441006\n              eq\n              tag_2\n              jumpi\n              dup1\n              0x0a144391\n              eq\n              tag_3\n              jumpi\n              dup1\n              0x481c6a75\n              eq\n              tag_4\n              jumpi\n              dup1\n              0x81d12c58\n              eq\n              tag_5\n              jumpi\n            tag_1:\n              0x00\n              dup1\n              revert\n                /* \"Campaign.sol\":2115:2615  function finalizeRequest(uint index) public restricted {... */\n            tag_2:\n              callvalue\n              dup1\n              iszero\n              tag_12\n              jumpi\n              0x00\n              dup1\n              revert\n            tag_12:\n              pop\n              tag_13\n              0x04\n              dup1\n              calldatasize\n              sub\n              dup2\n              add\n              swap1\n              tag_14\n              swap2\n              swap1\n              tag_15\n              jump\t// in\n            tag_14:\n              tag_16\n              jump\t// in\n            tag_13:\n              stop\n                /* \"Campaign.sol\":796:837  mapping(address => bool) public approvers */\n            tag_3:\n              callvalue\n              dup1\n              iszero\n              tag_17\n              jumpi\n              0x00\n              dup1\n              revert\n            tag_17:\n              pop\n              tag_18\n              0x04\n              dup1\n              calldatasize\n              sub\n              dup2\n              add\n              swap1\n              tag_19\n              swap2\n              swap1\n              tag_20\n              jump\t// in\n            tag_19:\n              tag_21\n              jump\t// in\n            tag_18:\n              mload(0x40)\n              tag_22\n              swap2\n              swap1\n              tag_23\n              jump\t// in\n            tag_22:\n              mload(0x40)\n              dup1\n              swap2\n              sub\n              swap1\n              return\n                /* \"Campaign.sol\":699:721  address public manager */\n            tag_4:\n              callvalue\n              dup1\n              iszero\n              tag_24\n              jumpi\n              0x00\n              dup1\n              revert\n            tag_24:\n              pop\n              tag_25\n              tag_26\n              jump\t// in\n            tag_25:\n              mload(0x40)\n              tag_27\n              swap2\n              swap1\n              tag_28\n              jump\t// in\n            tag_27:\n              mload(0x40)\n              dup1\n              swap2\n              sub\n              swap1\n              return\n                /* \"Campaign.sol\":652:693  mapping (uint => Request) public requests */\n            tag_5:\n              callvalue\n              dup1\n              iszero\n              tag_29\n              jumpi\n              0x00\n              dup1\n              revert\n            tag_29:\n              pop\n              tag_30\n              0x04\n              dup1\n              calldatasize\n              sub\n              dup2\n              add\n              swap1\n              tag_31\n              swap2\n              swap1\n              tag_15\n              jump\t// in\n            tag_31:\n              tag_32\n              jump\t// in\n            tag_30:\n              mload(0x40)\n              tag_33\n              swap6\n              swap5\n              swap4\n              swap3\n              swap2\n              swap1\n              tag_34\n              jump\t// in\n            tag_33:\n              mload(0x40)\n              dup1\n              swap2\n              sub\n              swap1\n              return\n                /* \"Campaign.sol\":764:790  uint public approversCount */\n            tag_6:\n              callvalue\n              dup1\n              iszero\n              tag_35\n              jumpi\n              0x00\n              dup1\n              revert\n            tag_35:\n              pop\n              tag_36\n              tag_37\n              jump\t// in\n            tag_36:\n              mload(0x40)\n              tag_38\n              swap2\n              swap1\n              tag_39\n              jump\t// in\n            tag_38:\n              mload(0x40)\n              dup1\n              swap2\n              sub\n              swap1\n              return\n                /* \"Campaign.sol\":1263:1584  function createRequest(string memory description, uint value, address recipient) public restricted {... */\n            tag_7:\n              callvalue\n              dup1\n              iszero\n              tag_40\n              jumpi\n              0x00\n              dup1\n              revert\n            tag_40:\n              pop\n              tag_41\n              0x04\n              dup1\n              calldatasize\n              sub\n              dup2\n              add\n              swap1\n              tag_42\n              swap2\n              swap1\n              tag_43\n              jump\t// in\n            tag_42:\n              tag_44\n              jump\t// in\n            tag_41:\n              stop\n                /* \"Campaign.sol\":727:758  uint public minimumContribution */\n            tag_8:\n              callvalue\n              dup1\n              iszero\n              tag_45\n              jumpi\n              0x00\n              dup1\n              revert\n            tag_45:\n              pop\n              tag_46\n              tag_47\n              jump\t// in\n            tag_46:\n              mload(0x40)\n              tag_48\n              swap2\n              swap1\n              tag_39\n              jump\t// in\n            tag_48:\n              mload(0x40)\n              dup1\n              swap2\n              sub\n              swap1\n              return\n                /* \"Campaign.sol\":1094:1253  function contribute() public payable {... */\n            tag_9:\n              tag_49\n              tag_50\n              jump\t// in\n            tag_49:\n              stop\n                /* \"Campaign.sol\":1594:2105  function approveRequest(uint index) public {... */\n            tag_10:\n              callvalue\n              dup1\n              iszero\n              tag_51\n              jumpi\n              0x00\n              dup1\n              revert\n            tag_51:\n              pop\n              tag_52\n              0x04\n              dup1\n              calldatasize\n              sub\n              dup2\n              add\n              swap1\n              tag_53\n              swap2\n              swap1\n              tag_15\n              jump\t// in\n            tag_53:\n              tag_54\n              jump\t// in\n            tag_52:\n              stop\n                /* \"Campaign.sol\":2115:2615  function finalizeRequest(uint index) public restricted {... */\n            tag_16:\n                /* \"Campaign.sol\":937:944  manager */\n              0x02\n              0x00\n              swap1\n              sload\n              swap1\n              0x0100\n              exp\n              swap1\n              div\n              0xffffffffffffffffffffffffffffffffffffffff\n              and\n                /* \"Campaign.sol\":923:944  msg.sender == manager */\n              0xffffffffffffffffffffffffffffffffffffffff\n              and\n                /* \"Campaign.sol\":923:933  msg.sender */\n              caller\n                /* \"Campaign.sol\":923:944  msg.sender == manager */\n              0xffffffffffffffffffffffffffffffffffffffff\n              and\n              eq\n                /* \"Campaign.sol\":915:945  require(msg.sender == manager) */\n              tag_56\n              jumpi\n              0x00\n              dup1\n              revert\n            tag_56:\n                /* \"Campaign.sol\":2207:2230  Request storage request */\n              0x00\n                /* \"Campaign.sol\":2233:2241  requests */\n              0x01\n                /* \"Campaign.sol\":2233:2248  requests[index] */\n              0x00\n                /* \"Campaign.sol\":2242:2247  index */\n              dup4\n                /* \"Campaign.sol\":2233:2248  requests[index] */\n              dup2\n              mstore\n              0x20\n              add\n              swap1\n              dup2\n              mstore\n              0x20\n              add\n              0x00\n              keccak256\n                /* \"Campaign.sol\":2207:2248  Request storage request = requests[index] */\n              swap1\n              pop\n                /* \"Campaign.sol\":2358:2359  2 */\n              0x02\n                /* \"Campaign.sol\":2343:2357  approversCount */\n              sload(0x04)\n                /* \"Campaign.sol\":2343:2359  approversCount/2 */\n              tag_58\n              swap2\n              swap1\n              tag_59\n              jump\t// in\n            tag_58:\n                /* \"Campaign.sol\":2317:2324  request */\n              dup2\n                /* \"Campaign.sol\":2317:2339  request.approvalsCount */\n              0x03\n              add\n              sload\n                /* \"Campaign.sol\":2317:2360  request.approvalsCount > (approversCount/2) */\n              gt\n                /* \"Campaign.sol\":2309:2361  require(request.approvalsCount > (approversCount/2)) */\n              tag_60\n              jumpi\n              0x00\n              dup1\n              revert\n            tag_60:\n                /* \"Campaign.sol\":2426:2433  request */\n              dup1\n                /* \"Campaign.sol\":2426:2442  request.complete */\n              0x02\n              add\n              0x14\n              swap1\n              sload\n              swap1\n              0x0100\n              exp\n              swap1\n              div\n              0xff\n              and\n                /* \"Campaign.sol\":2425:2442  !request.complete */\n              iszero\n                /* \"Campaign.sol\":2417:2443  require(!request.complete) */\n              tag_61\n              jumpi\n              0x00\n              dup1\n              revert\n            tag_61:\n                /* \"Campaign.sol\":2496:2503  request */\n              dup1\n                /* \"Campaign.sol\":2496:2513  request.recipient */\n              0x02\n              add\n              0x00\n              swap1\n              sload\n              swap1\n              0x0100\n              exp\n              swap1\n              div\n              0xffffffffffffffffffffffffffffffffffffffff\n              and\n                /* \"Campaign.sol\":2488:2523  payable(request.recipient).transfer */\n              0xffffffffffffffffffffffffffffffffffffffff\n              and\n                /* \"Campaign.sol\":2488:2538  payable(request.recipient).transfer(request.value) */\n              0x08fc\n                /* \"Campaign.sol\":2524:2531  request */\n              dup3\n                /* \"Campaign.sol\":2524:2537  request.value */\n              0x01\n              add\n              sload\n                /* \"Campaign.sol\":2488:2538  payable(request.recipient).transfer(request.value) */\n              swap1\n              dup2\n              iszero\n              mul\n              swap1\n              mload(0x40)\n              0x00\n              mload(0x40)\n              dup1\n              dup4\n              sub\n              dup2\n              dup6\n              dup9\n              dup9\n              call\n              swap4\n              pop\n              pop\n              pop\n              pop\n              iszero\n              dup1\n              iszero\n              tag_63\n              jumpi\n              returndatasize\n              0x00\n              dup1\n              returndatacopy\n              revert(0x00, returndatasize)\n            tag_63:\n              pop\n                /* \"Campaign.sol\":2595:2599  true */\n              0x01\n                /* \"Campaign.sol\":2576:2583  request */\n              dup2\n                /* \"Campaign.sol\":2576:2592  request.complete */\n              0x02\n              add\n              0x14\n                /* \"Campaign.sol\":2576:2599  request.complete = true */\n              0x0100\n              exp\n              dup2\n              sload\n              dup2\n              0xff\n              mul\n              not\n              and\n              swap1\n              dup4\n              iszero\n              iszero\n              mul\n              or\n              swap1\n              sstore\n              pop\n                /* \"Campaign.sol\":955:956  _ */\n              pop\n                /* \"Campaign.sol\":2115:2615  function finalizeRequest(uint index) public restricted {... */\n              pop\n              jump\t// out\n                /* \"Campaign.sol\":796:837  mapping(address => bool) public approvers */\n            tag_21:\n              mstore(0x20, 0x05)\n              dup1\n              0x00\n              mstore\n              keccak256(0x00, 0x40)\n              0x00\n              swap2\n              pop\n              sload\n              swap1\n              0x0100\n              exp\n              swap1\n              div\n              0xff\n              and\n              dup2\n              jump\t// out\n                /* \"Campaign.sol\":699:721  address public manager */\n            tag_26:\n              0x02\n              0x00\n              swap1\n              sload\n              swap1\n              0x0100\n              exp\n              swap1\n              div\n              0xffffffffffffffffffffffffffffffffffffffff\n              and\n              dup2\n              jump\t// out\n                /* \"Campaign.sol\":652:693  mapping (uint => Request) public requests */\n            tag_32:\n              mstore(0x20, 0x01)\n              dup1\n              0x00\n              mstore\n              keccak256(0x00, 0x40)\n              0x00\n              swap2\n              pop\n              swap1\n              pop\n              dup1\n              0x00\n              add\n              dup1\n              sload\n              tag_64\n              swap1\n              tag_65\n              jump\t// in\n            tag_64:\n              dup1\n              0x1f\n              add\n              0x20\n              dup1\n              swap2\n              div\n              mul\n              0x20\n              add\n              mload(0x40)\n              swap1\n              dup2\n              add\n              0x40\n              mstore\n              dup1\n              swap3\n              swap2\n              swap1\n              dup2\n              dup2\n              mstore\n              0x20\n              add\n              dup3\n              dup1\n              sload\n              tag_66\n              swap1\n              tag_65\n              jump\t// in\n            tag_66:\n              dup1\n              iszero\n              tag_67\n              jumpi\n              dup1\n              0x1f\n              lt\n              tag_68\n              jumpi\n              0x0100\n              dup1\n              dup4\n              sload\n              div\n              mul\n              dup4\n              mstore\n              swap2\n              0x20\n              add\n              swap2\n              jump(tag_67)\n            tag_68:\n              dup3\n              add\n              swap2\n              swap1\n              0x00\n              mstore\n              keccak256(0x00, 0x20)\n              swap1\n            tag_69:\n              dup2\n              sload\n              dup2\n              mstore\n              swap1\n              0x01\n              add\n              swap1\n              0x20\n              add\n              dup1\n              dup4\n              gt\n              tag_69\n              jumpi\n              dup3\n              swap1\n              sub\n              0x1f\n              and\n              dup3\n              add\n              swap2\n            tag_67:\n              pop\n              pop\n              pop\n              pop\n              pop\n              swap1\n              dup1\n              0x01\n              add\n              sload\n              swap1\n              dup1\n              0x02\n              add\n              0x00\n              swap1\n              sload\n              swap1\n              0x0100\n              exp\n              swap1\n              div\n              0xffffffffffffffffffffffffffffffffffffffff\n              and\n              swap1\n              dup1\n              0x02\n              add\n              0x14\n              swap1\n              sload\n              swap1\n              0x0100\n              exp\n              swap1\n              div\n              0xff\n              and\n              swap1\n              dup1\n              0x03\n              add\n              sload\n              swap1\n              pop\n              dup6\n              jump\t// out\n                /* \"Campaign.sol\":764:790  uint public approversCount */\n            tag_37:\n              sload(0x04)\n              dup2\n              jump\t// out\n                /* \"Campaign.sol\":1263:1584  function createRequest(string memory description, uint value, address recipient) public restricted {... */\n            tag_44:\n                /* \"Campaign.sol\":937:944  manager */\n              0x02\n              0x00\n              swap1\n              sload\n              swap1\n              0x0100\n              exp\n              swap1\n              div\n              0xffffffffffffffffffffffffffffffffffffffff\n              and\n                /* \"Campaign.sol\":923:944  msg.sender == manager */\n              0xffffffffffffffffffffffffffffffffffffffff\n              and\n                /* \"Campaign.sol\":923:933  msg.sender */\n              caller\n                /* \"Campaign.sol\":923:944  msg.sender == manager */\n              0xffffffffffffffffffffffffffffffffffffffff\n              and\n              eq\n                /* \"Campaign.sol\":915:945  require(msg.sender == manager) */\n              tag_71\n              jumpi\n              0x00\n              dup1\n              revert\n            tag_71:\n                /* \"Campaign.sol\":1381:1398  Request storage r */\n              0x00\n                /* \"Campaign.sol\":1401:1409  requests */\n              0x01\n                /* \"Campaign.sol\":1401:1424  requests[numRequests++] */\n              0x00\n                /* \"Campaign.sol\":1410:1421  numRequests */\n              dup1\n              0x00\n                /* \"Campaign.sol\":1410:1423  numRequests++ */\n              dup2\n              sload\n              dup1\n              swap3\n              swap2\n              swap1\n              tag_73\n              swap1\n              tag_74\n              jump\t// in\n            tag_73:\n              swap2\n              swap1\n              pop\n              sstore\n                /* \"Campaign.sol\":1401:1424  requests[numRequests++] */\n              dup2\n              mstore\n              0x20\n              add\n              swap1\n              dup2\n              mstore\n              0x20\n              add\n              0x00\n              keccak256\n                /* \"Campaign.sol\":1381:1424  Request storage r = requests[numRequests++] */\n              swap1\n              pop\n                /* \"Campaign.sol\":1450:1461  description */\n              dup4\n                /* \"Campaign.sol\":1434:1435  r */\n              dup2\n                /* \"Campaign.sol\":1434:1447  r.description */\n              0x00\n              add\n                /* \"Campaign.sol\":1434:1461  r.description = description */\n              swap1\n              dup1\n              mload\n              swap1\n              0x20\n              add\n              swap1\n              tag_75\n              swap3\n              swap2\n              swap1\n              tag_76\n              jump\t// in\n            tag_75:\n              pop\n                /* \"Campaign.sol\":1481:1486  value */\n              dup3\n                /* \"Campaign.sol\":1471:1472  r */\n              dup2\n                /* \"Campaign.sol\":1471:1478  r.value */\n              0x01\n              add\n                /* \"Campaign.sol\":1471:1486  r.value = value */\n              dup2\n              swap1\n              sstore\n              pop\n                /* \"Campaign.sol\":1510:1519  recipient */\n              dup2\n                /* \"Campaign.sol\":1496:1497  r */\n              dup2\n                /* \"Campaign.sol\":1496:1507  r.recipient */\n              0x02\n              add\n              0x00\n                /* \"Campaign.sol\":1496:1519  r.recipient = recipient */\n              0x0100\n              exp\n              dup2\n              sload\n              dup2\n              0xffffffffffffffffffffffffffffffffffffffff\n              mul\n              not\n              and\n              swap1\n              dup4\n              0xffffffffffffffffffffffffffffffffffffffff\n              and\n              mul\n              or\n              swap1\n              sstore\n              pop\n                /* \"Campaign.sol\":1542:1547  false */\n              0x00\n                /* \"Campaign.sol\":1529:1530  r */\n              dup2\n                /* \"Campaign.sol\":1529:1539  r.complete */\n              0x02\n              add\n              0x14\n                /* \"Campaign.sol\":1529:1547  r.complete = false */\n              0x0100\n              exp\n              dup2\n              sload\n              dup2\n              0xff\n              mul\n              not\n              and\n              swap1\n              dup4\n              iszero\n              iszero\n              mul\n              or\n              swap1\n              sstore\n              pop\n                /* \"Campaign.sol\":1576:1577  0 */\n              0x00\n                /* \"Campaign.sol\":1557:1558  r */\n              dup2\n                /* \"Campaign.sol\":1557:1573  r.approvalsCount */\n              0x03\n              add\n                /* \"Campaign.sol\":1557:1577  r.approvalsCount = 0 */\n              dup2\n              swap1\n              sstore\n              pop\n                /* \"Campaign.sol\":955:956  _ */\n              pop\n                /* \"Campaign.sol\":1263:1584  function createRequest(string memory description, uint value, address recipient) public restricted {... */\n              pop\n              pop\n              pop\n              jump\t// out\n                /* \"Campaign.sol\":727:758  uint public minimumContribution */\n            tag_47:\n              sload(0x03)\n              dup2\n              jump\t// out\n                /* \"Campaign.sol\":1094:1253  function contribute() public payable {... */\n            tag_50:\n                /* \"Campaign.sol\":1162:1181  minimumContribution */\n              sload(0x03)\n                /* \"Campaign.sol\":1149:1158  msg.value */\n              callvalue\n                /* \"Campaign.sol\":1149:1181  msg.value >= minimumContribution */\n              lt\n              iszero\n                /* \"Campaign.sol\":1141:1182  require(msg.value >= minimumContribution) */\n              tag_78\n              jumpi\n              0x00\n              dup1\n              revert\n            tag_78:\n                /* \"Campaign.sol\":1192:1206  approversCount */\n              0x04\n              0x00\n                /* \"Campaign.sol\":1192:1208  approversCount++ */\n              dup2\n              sload\n              dup1\n              swap3\n              swap2\n              swap1\n              tag_79\n              swap1\n              tag_74\n              jump\t// in\n            tag_79:\n              swap2\n              swap1\n              pop\n              sstore\n              pop\n                /* \"Campaign.sol\":1242:1246  true */\n              0x01\n                /* \"Campaign.sol\":1218:1227  approvers */\n              0x05\n                /* \"Campaign.sol\":1218:1239  approvers[msg.sender] */\n              0x00\n                /* \"Campaign.sol\":1228:1238  msg.sender */\n              caller\n                /* \"Campaign.sol\":1218:1239  approvers[msg.sender] */\n              0xffffffffffffffffffffffffffffffffffffffff\n              and\n              0xffffffffffffffffffffffffffffffffffffffff\n              and\n              dup2\n              mstore\n              0x20\n              add\n              swap1\n              dup2\n              mstore\n              0x20\n              add\n              0x00\n              keccak256\n              0x00\n                /* \"Campaign.sol\":1218:1246  approvers[msg.sender] = true */\n              0x0100\n              exp\n              dup2\n              sload\n              dup2\n              0xff\n              mul\n              not\n              and\n              swap1\n              dup4\n              iszero\n              iszero\n              mul\n              or\n              swap1\n              sstore\n              pop\n                /* \"Campaign.sol\":1094:1253  function contribute() public payable {... */\n              jump\t// out\n                /* \"Campaign.sol\":1594:2105  function approveRequest(uint index) public {... */\n            tag_54:\n                /* \"Campaign.sol\":1674:1697  Request storage request */\n              0x00\n                /* \"Campaign.sol\":1700:1708  requests */\n              0x01\n                /* \"Campaign.sol\":1700:1715  requests[index] */\n              0x00\n                /* \"Campaign.sol\":1709:1714  index */\n              dup4\n                /* \"Campaign.sol\":1700:1715  requests[index] */\n              dup2\n              mstore\n              0x20\n              add\n              swap1\n              dup2\n              mstore\n              0x20\n              add\n              0x00\n              keccak256\n                /* \"Campaign.sol\":1674:1715  Request storage request = requests[index] */\n              swap1\n              pop\n                /* \"Campaign.sol\":1791:1800  approvers */\n              0x05\n                /* \"Campaign.sol\":1791:1812  approvers[msg.sender] */\n              0x00\n                /* \"Campaign.sol\":1801:1811  msg.sender */\n              caller\n                /* \"Campaign.sol\":1791:1812  approvers[msg.sender] */\n              0xffffffffffffffffffffffffffffffffffffffff\n              and\n              0xffffffffffffffffffffffffffffffffffffffff\n              and\n              dup2\n              mstore\n              0x20\n              add\n              swap1\n              dup2\n              mstore\n              0x20\n              add\n              0x00\n              keccak256\n              0x00\n              swap1\n              sload\n              swap1\n              0x0100\n              exp\n              swap1\n              div\n              0xff\n              and\n                /* \"Campaign.sol\":1783:1813  require(approvers[msg.sender]) */\n              tag_81\n              jumpi\n              0x00\n              dup1\n              revert\n            tag_81:\n                /* \"Campaign.sol\":1886:1893  request */\n              dup1\n                /* \"Campaign.sol\":1886:1903  request.approvals */\n              0x04\n              add\n                /* \"Campaign.sol\":1886:1915  request.approvals[msg.sender] */\n              0x00\n                /* \"Campaign.sol\":1904:1914  msg.sender */\n              caller\n                /* \"Campaign.sol\":1886:1915  request.approvals[msg.sender] */\n              0xffffffffffffffffffffffffffffffffffffffff\n              and\n              0xffffffffffffffffffffffffffffffffffffffff\n              and\n              dup2\n              mstore\n              0x20\n              add\n              swap1\n              dup2\n              mstore\n              0x20\n              add\n              0x00\n              keccak256\n              0x00\n              swap1\n              sload\n              swap1\n              0x0100\n              exp\n              swap1\n              div\n              0xff\n              and\n                /* \"Campaign.sol\":1885:1915  !request.approvals[msg.sender] */\n              iszero\n                /* \"Campaign.sol\":1877:1916  require(!request.approvals[msg.sender]) */\n              tag_82\n              jumpi\n              0x00\n              dup1\n              revert\n            tag_82:\n                /* \"Campaign.sol\":1979:1986  request */\n              dup1\n                /* \"Campaign.sol\":1979:2001  request.approvalsCount */\n              0x03\n              add\n              0x00\n                /* \"Campaign.sol\":1979:2003  request.approvalsCount++ */\n              dup2\n              sload\n              dup1\n              swap3\n              swap2\n              swap1\n              tag_83\n              swap1\n              tag_74\n              jump\t// in\n            tag_83:\n              swap2\n              swap1\n              pop\n              sstore\n              pop\n                /* \"Campaign.sol\":2094:2098  true */\n              0x01\n                /* \"Campaign.sol\":2062:2069  request */\n              dup2\n                /* \"Campaign.sol\":2062:2079  request.approvals */\n              0x04\n              add\n                /* \"Campaign.sol\":2062:2091  request.approvals[msg.sender] */\n              0x00\n                /* \"Campaign.sol\":2080:2090  msg.sender */\n              caller\n                /* \"Campaign.sol\":2062:2091  request.approvals[msg.sender] */\n              0xffffffffffffffffffffffffffffffffffffffff\n              and\n              0xffffffffffffffffffffffffffffffffffffffff\n              and\n              dup2\n              mstore\n              0x20\n              add\n              swap1\n              dup2\n              mstore\n              0x20\n              add\n              0x00\n              keccak256\n              0x00\n                /* \"Campaign.sol\":2062:2098  request.approvals[msg.sender] = true */\n              0x0100\n              exp\n              dup2\n              sload\n              dup2\n              0xff\n              mul\n              not\n              and\n              swap1\n              dup4\n              iszero\n              iszero\n              mul\n              or\n              swap1\n              sstore\n              pop\n                /* \"Campaign.sol\":1594:2105  function approveRequest(uint index) public {... */\n              pop\n              pop\n              jump\t// out\n            tag_76:\n              dup3\n              dup1\n              sload\n              tag_84\n              swap1\n              tag_65\n              jump\t// in\n            tag_84:\n              swap1\n              0x00\n              mstore\n              keccak256(0x00, 0x20)\n              swap1\n              0x1f\n              add\n              0x20\n              swap1\n              div\n              dup2\n              add\n              swap3\n              dup3\n              tag_86\n              jumpi\n              0x00\n              dup6\n              sstore\n              jump(tag_85)\n            tag_86:\n              dup3\n              0x1f\n              lt\n              tag_87\n              jumpi\n              dup1\n              mload\n              not(0xff)\n              and\n              dup4\n              dup1\n              add\n              or\n              dup6\n              sstore\n              jump(tag_85)\n            tag_87:\n              dup3\n              dup1\n              add\n              0x01\n              add\n              dup6\n              sstore\n              dup3\n              iszero\n              tag_85\n              jumpi\n              swap2\n              dup3\n              add\n            tag_88:\n              dup3\n              dup2\n              gt\n              iszero\n              tag_89\n              jumpi\n              dup3\n              mload\n              dup3\n              sstore\n              swap2\n              0x20\n              add\n              swap2\n              swap1\n              0x01\n              add\n              swap1\n              jump(tag_88)\n            tag_89:\n            tag_85:\n              pop\n              swap1\n              pop\n              tag_90\n              swap2\n              swap1\n              tag_91\n              jump\t// in\n            tag_90:\n              pop\n              swap1\n              jump\t// out\n            tag_91:\n            tag_92:\n              dup1\n              dup3\n              gt\n              iszero\n              tag_93\n              jumpi\n              0x00\n              dup2\n              0x00\n              swap1\n              sstore\n              pop\n              0x01\n              add\n              jump(tag_92)\n            tag_93:\n              pop\n              swap1\n              jump\t// out\n                /* \"#utility.yul\":7:352   */\n            tag_95:\n              0x00\n                /* \"#utility.yul\":110:176   */\n              tag_97\n                /* \"#utility.yul\":126:175   */\n              tag_98\n                /* \"#utility.yul\":168:174   */\n              dup5\n                /* \"#utility.yul\":126:175   */\n              tag_99\n              jump\t// in\n            tag_98:\n                /* \"#utility.yul\":110:176   */\n              tag_100\n              jump\t// in\n            tag_97:\n                /* \"#utility.yul\":101:176   */\n              swap1\n              pop\n                /* \"#utility.yul\":199:205   */\n              dup3\n                /* \"#utility.yul\":192:197   */\n              dup2\n                /* \"#utility.yul\":185:206   */\n              mstore\n                /* \"#utility.yul\":237:241   */\n              0x20\n                /* \"#utility.yul\":230:235   */\n              dup2\n                /* \"#utility.yul\":226:242   */\n              add\n                /* \"#utility.yul\":275:278   */\n              dup5\n                /* \"#utility.yul\":266:272   */\n              dup5\n                /* \"#utility.yul\":261:264   */\n              dup5\n                /* \"#utility.yul\":257:273   */\n              add\n                /* \"#utility.yul\":254:279   */\n              gt\n                /* \"#utility.yul\":251:253   */\n              iszero\n              tag_101\n              jumpi\n                /* \"#utility.yul\":292:293   */\n              0x00\n                /* \"#utility.yul\":289:290   */\n              dup1\n                /* \"#utility.yul\":282:294   */\n              revert\n                /* \"#utility.yul\":251:253   */\n            tag_101:\n                /* \"#utility.yul\":305:346   */\n              tag_102\n                /* \"#utility.yul\":339:345   */\n              dup5\n                /* \"#utility.yul\":334:337   */\n              dup3\n                /* \"#utility.yul\":329:332   */\n              dup6\n                /* \"#utility.yul\":305:346   */\n              tag_103\n              jump\t// in\n            tag_102:\n                /* \"#utility.yul\":91:352   */\n              pop\n              swap4\n              swap3\n              pop\n              pop\n              pop\n              jump\t// out\n                /* \"#utility.yul\":358:497   */\n            tag_104:\n              0x00\n                /* \"#utility.yul\":442:448   */\n              dup2\n                /* \"#utility.yul\":429:449   */\n              calldataload\n                /* \"#utility.yul\":420:449   */\n              swap1\n              pop\n                /* \"#utility.yul\":458:491   */\n              tag_106\n                /* \"#utility.yul\":485:490   */\n              dup2\n                /* \"#utility.yul\":458:491   */\n              tag_107\n              jump\t// in\n            tag_106:\n                /* \"#utility.yul\":410:497   */\n              swap3\n              swap2\n              pop\n              pop\n              jump\t// out\n                /* \"#utility.yul\":517:790   */\n            tag_108:\n              0x00\n                /* \"#utility.yul\":622:625   */\n              dup3\n                /* \"#utility.yul\":615:619   */\n              0x1f\n                /* \"#utility.yul\":607:613   */\n              dup4\n                /* \"#utility.yul\":603:620   */\n              add\n                /* \"#utility.yul\":599:626   */\n              slt\n                /* \"#utility.yul\":589:591   */\n              tag_110\n              jumpi\n                /* \"#utility.yul\":640:641   */\n              0x00\n                /* \"#utility.yul\":637:638   */\n              dup1\n                /* \"#utility.yul\":630:642   */\n              revert\n                /* \"#utility.yul\":589:591   */\n            tag_110:\n                /* \"#utility.yul\":680:686   */\n              dup2\n                /* \"#utility.yul\":667:687   */\n              calldataload\n                /* \"#utility.yul\":705:784   */\n              tag_111\n                /* \"#utility.yul\":780:783   */\n              dup5\n                /* \"#utility.yul\":772:778   */\n              dup3\n                /* \"#utility.yul\":765:769   */\n              0x20\n                /* \"#utility.yul\":757:763   */\n              dup7\n                /* \"#utility.yul\":753:770   */\n              add\n                /* \"#utility.yul\":705:784   */\n              tag_95\n              jump\t// in\n            tag_111:\n                /* \"#utility.yul\":696:784   */\n              swap2\n              pop\n                /* \"#utility.yul\":579:790   */\n              pop\n              swap3\n              swap2\n              pop\n              pop\n              jump\t// out\n                /* \"#utility.yul\":796:935   */\n            tag_112:\n              0x00\n                /* \"#utility.yul\":880:886   */\n              dup2\n                /* \"#utility.yul\":867:887   */\n              calldataload\n                /* \"#utility.yul\":858:887   */\n              swap1\n              pop\n                /* \"#utility.yul\":896:929   */\n              tag_114\n                /* \"#utility.yul\":923:928   */\n              dup2\n                /* \"#utility.yul\":896:929   */\n              tag_115\n              jump\t// in\n            tag_114:\n                /* \"#utility.yul\":848:935   */\n              swap3\n              swap2\n              pop\n              pop\n              jump\t// out\n                /* \"#utility.yul\":941:1203   */\n            tag_20:\n              0x00\n                /* \"#utility.yul\":1049:1051   */\n              0x20\n                /* \"#utility.yul\":1037:1046   */\n              dup3\n                /* \"#utility.yul\":1028:1035   */\n              dup5\n                /* \"#utility.yul\":1024:1047   */\n              sub\n                /* \"#utility.yul\":1020:1052   */\n              slt\n                /* \"#utility.yul\":1017:1019   */\n              iszero\n              tag_117\n              jumpi\n                /* \"#utility.yul\":1065:1066   */\n              0x00\n                /* \"#utility.yul\":1062:1063   */\n              dup1\n                /* \"#utility.yul\":1055:1067   */\n              revert\n                /* \"#utility.yul\":1017:1019   */\n            tag_117:\n                /* \"#utility.yul\":1108:1109   */\n              0x00\n                /* \"#utility.yul\":1133:1186   */\n              tag_118\n                /* \"#utility.yul\":1178:1185   */\n              dup5\n                /* \"#utility.yul\":1169:1175   */\n              dup3\n                /* \"#utility.yul\":1158:1167   */\n              dup6\n                /* \"#utility.yul\":1154:1176   */\n              add\n                /* \"#utility.yul\":1133:1186   */\n              tag_104\n              jump\t// in\n            tag_118:\n                /* \"#utility.yul\":1123:1186   */\n              swap2\n              pop\n                /* \"#utility.yul\":1079:1196   */\n              pop\n                /* \"#utility.yul\":1007:1203   */\n              swap3\n              swap2\n              pop\n              pop\n              jump\t// out\n                /* \"#utility.yul\":1209:1874   */\n            tag_43:\n              0x00\n              dup1\n              0x00\n                /* \"#utility.yul\":1361:1363   */\n              0x60\n                /* \"#utility.yul\":1349:1358   */\n              dup5\n                /* \"#utility.yul\":1340:1347   */\n              dup7\n                /* \"#utility.yul\":1336:1359   */\n              sub\n                /* \"#utility.yul\":1332:1364   */\n              slt\n                /* \"#utility.yul\":1329:1331   */\n              iszero\n              tag_120\n              jumpi\n                /* \"#utility.yul\":1377:1378   */\n              0x00\n                /* \"#utility.yul\":1374:1375   */\n              dup1\n                /* \"#utility.yul\":1367:1379   */\n              revert\n                /* \"#utility.yul\":1329:1331   */\n            tag_120:\n                /* \"#utility.yul\":1448:1449   */\n              0x00\n                /* \"#utility.yul\":1437:1446   */\n              dup5\n                /* \"#utility.yul\":1433:1450   */\n              add\n                /* \"#utility.yul\":1420:1451   */\n              calldataload\n                /* \"#utility.yul\":1478:1496   */\n              0xffffffffffffffff\n                /* \"#utility.yul\":1470:1476   */\n              dup2\n                /* \"#utility.yul\":1467:1497   */\n              gt\n                /* \"#utility.yul\":1464:1466   */\n              iszero\n              tag_121\n              jumpi\n                /* \"#utility.yul\":1510:1511   */\n              0x00\n                /* \"#utility.yul\":1507:1508   */\n              dup1\n                /* \"#utility.yul\":1500:1512   */\n              revert\n                /* \"#utility.yul\":1464:1466   */\n            tag_121:\n                /* \"#utility.yul\":1538:1601   */\n              tag_122\n                /* \"#utility.yul\":1593:1600   */\n              dup7\n                /* \"#utility.yul\":1584:1590   */\n              dup3\n                /* \"#utility.yul\":1573:1582   */\n              dup8\n                /* \"#utility.yul\":1569:1591   */\n              add\n                /* \"#utility.yul\":1538:1601   */\n              tag_108\n              jump\t// in\n            tag_122:\n                /* \"#utility.yul\":1528:1601   */\n              swap4\n              pop\n                /* \"#utility.yul\":1391:1611   */\n              pop\n                /* \"#utility.yul\":1650:1652   */\n              0x20\n                /* \"#utility.yul\":1676:1729   */\n              tag_123\n                /* \"#utility.yul\":1721:1728   */\n              dup7\n                /* \"#utility.yul\":1712:1718   */\n              dup3\n                /* \"#utility.yul\":1701:1710   */\n              dup8\n                /* \"#utility.yul\":1697:1719   */\n              add\n                /* \"#utility.yul\":1676:1729   */\n              tag_112\n              jump\t// in\n            tag_123:\n                /* \"#utility.yul\":1666:1729   */\n              swap3\n              pop\n                /* \"#utility.yul\":1621:1739   */\n              pop\n                /* \"#utility.yul\":1778:1780   */\n              0x40\n                /* \"#utility.yul\":1804:1857   */\n              tag_124\n                /* \"#utility.yul\":1849:1856   */\n              dup7\n                /* \"#utility.yul\":1840:1846   */\n              dup3\n                /* \"#utility.yul\":1829:1838   */\n              dup8\n                /* \"#utility.yul\":1825:1847   */\n              add\n                /* \"#utility.yul\":1804:1857   */\n              tag_104\n              jump\t// in\n            tag_124:\n                /* \"#utility.yul\":1794:1857   */\n              swap2\n              pop\n                /* \"#utility.yul\":1749:1867   */\n              pop\n                /* \"#utility.yul\":1319:1874   */\n              swap3\n              pop\n              swap3\n              pop\n              swap3\n              jump\t// out\n                /* \"#utility.yul\":1880:2142   */\n            tag_15:\n              0x00\n                /* \"#utility.yul\":1988:1990   */\n              0x20\n                /* \"#utility.yul\":1976:1985   */\n              dup3\n                /* \"#utility.yul\":1967:1974   */\n              dup5\n                /* \"#utility.yul\":1963:1986   */\n              sub\n                /* \"#utility.yul\":1959:1991   */\n              slt\n                /* \"#utility.yul\":1956:1958   */\n              iszero\n              tag_126\n              jumpi\n                /* \"#utility.yul\":2004:2005   */\n              0x00\n                /* \"#utility.yul\":2001:2002   */\n              dup1\n                /* \"#utility.yul\":1994:2006   */\n              revert\n                /* \"#utility.yul\":1956:1958   */\n            tag_126:\n                /* \"#utility.yul\":2047:2048   */\n              0x00\n                /* \"#utility.yul\":2072:2125   */\n              tag_127\n                /* \"#utility.yul\":2117:2124   */\n              dup5\n                /* \"#utility.yul\":2108:2114   */\n              dup3\n                /* \"#utility.yul\":2097:2106   */\n              dup6\n                /* \"#utility.yul\":2093:2115   */\n              add\n                /* \"#utility.yul\":2072:2125   */\n              tag_112\n              jump\t// in\n            tag_127:\n                /* \"#utility.yul\":2062:2125   */\n              swap2\n              pop\n                /* \"#utility.yul\":2018:2135   */\n              pop\n                /* \"#utility.yul\":1946:2142   */\n              swap3\n              swap2\n              pop\n              pop\n              jump\t// out\n                /* \"#utility.yul\":2148:2266   */\n            tag_128:\n                /* \"#utility.yul\":2235:2259   */\n              tag_130\n                /* \"#utility.yul\":2253:2258   */\n              dup2\n                /* \"#utility.yul\":2235:2259   */\n              tag_131\n              jump\t// in\n            tag_130:\n                /* \"#utility.yul\":2230:2233   */\n              dup3\n                /* \"#utility.yul\":2223:2260   */\n              mstore\n                /* \"#utility.yul\":2213:2266   */\n              pop\n              pop\n              jump\t// out\n                /* \"#utility.yul\":2272:2381   */\n            tag_132:\n                /* \"#utility.yul\":2353:2374   */\n              tag_134\n                /* \"#utility.yul\":2368:2373   */\n              dup2\n                /* \"#utility.yul\":2353:2374   */\n              tag_135\n              jump\t// in\n            tag_134:\n                /* \"#utility.yul\":2348:2351   */\n              dup3\n                /* \"#utility.yul\":2341:2375   */\n              mstore\n                /* \"#utility.yul\":2331:2381   */\n              pop\n              pop\n              jump\t// out\n                /* \"#utility.yul\":2387:2751   */\n            tag_136:\n              0x00\n                /* \"#utility.yul\":2503:2542   */\n              tag_138\n                /* \"#utility.yul\":2536:2541   */\n              dup3\n                /* \"#utility.yul\":2503:2542   */\n              tag_139\n              jump\t// in\n            tag_138:\n                /* \"#utility.yul\":2558:2629   */\n              tag_140\n                /* \"#utility.yul\":2622:2628   */\n              dup2\n                /* \"#utility.yul\":2617:2620   */\n              dup6\n                /* \"#utility.yul\":2558:2629   */\n              tag_141\n              jump\t// in\n            tag_140:\n                /* \"#utility.yul\":2551:2629   */\n              swap4\n              pop\n                /* \"#utility.yul\":2638:2690   */\n              tag_142\n                /* \"#utility.yul\":2683:2689   */\n              dup2\n                /* \"#utility.yul\":2678:2681   */\n              dup6\n                /* \"#utility.yul\":2671:2675   */\n              0x20\n                /* \"#utility.yul\":2664:2669   */\n              dup7\n                /* \"#utility.yul\":2660:2676   */\n              add\n                /* \"#utility.yul\":2638:2690   */\n              tag_143\n              jump\t// in\n            tag_142:\n                /* \"#utility.yul\":2715:2744   */\n              tag_144\n                /* \"#utility.yul\":2737:2743   */\n              dup2\n                /* \"#utility.yul\":2715:2744   */\n              tag_145\n              jump\t// in\n            tag_144:\n                /* \"#utility.yul\":2710:2713   */\n              dup5\n                /* \"#utility.yul\":2706:2745   */\n              add\n                /* \"#utility.yul\":2699:2745   */\n              swap2\n              pop\n                /* \"#utility.yul\":2479:2751   */\n              pop\n              swap3\n              swap2\n              pop\n              pop\n              jump\t// out\n                /* \"#utility.yul\":2757:2875   */\n            tag_146:\n                /* \"#utility.yul\":2844:2868   */\n              tag_148\n                /* \"#utility.yul\":2862:2867   */\n              dup2\n                /* \"#utility.yul\":2844:2868   */\n              tag_149\n              jump\t// in\n            tag_148:\n                /* \"#utility.yul\":2839:2842   */\n              dup3\n                /* \"#utility.yul\":2832:2869   */\n              mstore\n                /* \"#utility.yul\":2822:2875   */\n              pop\n              pop\n              jump\t// out\n                /* \"#utility.yul\":2881:3103   */\n            tag_28:\n              0x00\n                /* \"#utility.yul\":3012:3014   */\n              0x20\n                /* \"#utility.yul\":3001:3010   */\n              dup3\n                /* \"#utility.yul\":2997:3015   */\n              add\n                /* \"#utility.yul\":2989:3015   */\n              swap1\n              pop\n                /* \"#utility.yul\":3025:3096   */\n              tag_151\n                /* \"#utility.yul\":3093:3094   */\n              0x00\n                /* \"#utility.yul\":3082:3091   */\n              dup4\n                /* \"#utility.yul\":3078:3095   */\n              add\n                /* \"#utility.yul\":3069:3075   */\n              dup5\n                /* \"#utility.yul\":3025:3096   */\n              tag_128\n              jump\t// in\n            tag_151:\n                /* \"#utility.yul\":2979:3103   */\n              swap3\n              swap2\n              pop\n              pop\n              jump\t// out\n                /* \"#utility.yul\":3109:3319   */\n            tag_23:\n              0x00\n                /* \"#utility.yul\":3234:3236   */\n              0x20\n                /* \"#utility.yul\":3223:3232   */\n              dup3\n                /* \"#utility.yul\":3219:3237   */\n              add\n                /* \"#utility.yul\":3211:3237   */\n              swap1\n              pop\n                /* \"#utility.yul\":3247:3312   */\n              tag_153\n                /* \"#utility.yul\":3309:3310   */\n              0x00\n                /* \"#utility.yul\":3298:3307   */\n              dup4\n                /* \"#utility.yul\":3294:3311   */\n              add\n                /* \"#utility.yul\":3285:3291   */\n              dup5\n                /* \"#utility.yul\":3247:3312   */\n              tag_132\n              jump\t// in\n            tag_153:\n                /* \"#utility.yul\":3201:3319   */\n              swap3\n              swap2\n              pop\n              pop\n              jump\t// out\n                /* \"#utility.yul\":3325:4068   */\n            tag_34:\n              0x00\n                /* \"#utility.yul\":3582:3585   */\n              0xa0\n                /* \"#utility.yul\":3571:3580   */\n              dup3\n                /* \"#utility.yul\":3567:3586   */\n              add\n                /* \"#utility.yul\":3559:3586   */\n              swap1\n              pop\n                /* \"#utility.yul\":3632:3641   */\n              dup2\n                /* \"#utility.yul\":3626:3630   */\n              dup2\n                /* \"#utility.yul\":3622:3642   */\n              sub\n                /* \"#utility.yul\":3618:3619   */\n              0x00\n                /* \"#utility.yul\":3607:3616   */\n              dup4\n                /* \"#utility.yul\":3603:3620   */\n              add\n                /* \"#utility.yul\":3596:3643   */\n              mstore\n                /* \"#utility.yul\":3660:3738   */\n              tag_155\n                /* \"#utility.yul\":3733:3737   */\n              dup2\n                /* \"#utility.yul\":3724:3730   */\n              dup9\n                /* \"#utility.yul\":3660:3738   */\n              tag_136\n              jump\t// in\n            tag_155:\n                /* \"#utility.yul\":3652:3738   */\n              swap1\n              pop\n                /* \"#utility.yul\":3748:3820   */\n              tag_156\n                /* \"#utility.yul\":3816:3818   */\n              0x20\n                /* \"#utility.yul\":3805:3814   */\n              dup4\n                /* \"#utility.yul\":3801:3819   */\n              add\n                /* \"#utility.yul\":3792:3798   */\n              dup8\n                /* \"#utility.yul\":3748:3820   */\n              tag_146\n              jump\t// in\n            tag_156:\n                /* \"#utility.yul\":3830:3902   */\n              tag_157\n                /* \"#utility.yul\":3898:3900   */\n              0x40\n                /* \"#utility.yul\":3887:3896   */\n              dup4\n                /* \"#utility.yul\":3883:3901   */\n              add\n                /* \"#utility.yul\":3874:3880   */\n              dup7\n                /* \"#utility.yul\":3830:3902   */\n              tag_128\n              jump\t// in\n            tag_157:\n                /* \"#utility.yul\":3912:3978   */\n              tag_158\n                /* \"#utility.yul\":3974:3976   */\n              0x60\n                /* \"#utility.yul\":3963:3972   */\n              dup4\n                /* \"#utility.yul\":3959:3977   */\n              add\n                /* \"#utility.yul\":3950:3956   */\n              dup6\n                /* \"#utility.yul\":3912:3978   */\n              tag_132\n              jump\t// in\n            tag_158:\n                /* \"#utility.yul\":3988:4061   */\n              tag_159\n                /* \"#utility.yul\":4056:4059   */\n              0x80\n                /* \"#utility.yul\":4045:4054   */\n              dup4\n                /* \"#utility.yul\":4041:4060   */\n              add\n                /* \"#utility.yul\":4032:4038   */\n              dup5\n                /* \"#utility.yul\":3988:4061   */\n              tag_146\n              jump\t// in\n            tag_159:\n                /* \"#utility.yul\":3549:4068   */\n              swap7\n              swap6\n              pop\n              pop\n              pop\n              pop\n              pop\n              pop\n              jump\t// out\n                /* \"#utility.yul\":4074:4296   */\n            tag_39:\n              0x00\n                /* \"#utility.yul\":4205:4207   */\n              0x20\n                /* \"#utility.yul\":4194:4203   */\n              dup3\n                /* \"#utility.yul\":4190:4208   */\n              add\n                /* \"#utility.yul\":4182:4208   */\n              swap1\n              pop\n                /* \"#utility.yul\":4218:4289   */\n              tag_161\n                /* \"#utility.yul\":4286:4287   */\n              0x00\n                /* \"#utility.yul\":4275:4284   */\n              dup4\n                /* \"#utility.yul\":4271:4288   */\n              add\n                /* \"#utility.yul\":4262:4268   */\n              dup5\n                /* \"#utility.yul\":4218:4289   */\n              tag_146\n              jump\t// in\n            tag_161:\n                /* \"#utility.yul\":4172:4296   */\n              swap3\n              swap2\n              pop\n              pop\n              jump\t// out\n                /* \"#utility.yul\":4302:4431   */\n            tag_100:\n              0x00\n                /* \"#utility.yul\":4363:4383   */\n              tag_163\n              tag_164\n              jump\t// in\n            tag_163:\n                /* \"#utility.yul\":4353:4383   */\n              swap1\n              pop\n                /* \"#utility.yul\":4392:4425   */\n              tag_165\n                /* \"#utility.yul\":4420:4424   */\n              dup3\n                /* \"#utility.yul\":4412:4418   */\n              dup3\n                /* \"#utility.yul\":4392:4425   */\n              tag_166\n              jump\t// in\n            tag_165:\n                /* \"#utility.yul\":4343:4431   */\n              swap2\n              swap1\n              pop\n              jump\t// out\n                /* \"#utility.yul\":4437:4512   */\n            tag_164:\n              0x00\n                /* \"#utility.yul\":4503:4505   */\n              0x40\n                /* \"#utility.yul\":4497:4506   */\n              mload\n                /* \"#utility.yul\":4487:4506   */\n              swap1\n              pop\n                /* \"#utility.yul\":4477:4512   */\n              swap1\n              jump\t// out\n                /* \"#utility.yul\":4518:4826   */\n            tag_99:\n              0x00\n                /* \"#utility.yul\":4670:4688   */\n              0xffffffffffffffff\n                /* \"#utility.yul\":4662:4668   */\n              dup3\n                /* \"#utility.yul\":4659:4689   */\n              gt\n                /* \"#utility.yul\":4656:4658   */\n              iszero\n              tag_169\n              jumpi\n                /* \"#utility.yul\":4692:4710   */\n              tag_170\n              tag_171\n              jump\t// in\n            tag_170:\n                /* \"#utility.yul\":4656:4658   */\n            tag_169:\n                /* \"#utility.yul\":4730:4759   */\n              tag_172\n                /* \"#utility.yul\":4752:4758   */\n              dup3\n                /* \"#utility.yul\":4730:4759   */\n              tag_145\n              jump\t// in\n            tag_172:\n                /* \"#utility.yul\":4722:4759   */\n              swap1\n              pop\n                /* \"#utility.yul\":4814:4818   */\n              0x20\n                /* \"#utility.yul\":4808:4812   */\n              dup2\n                /* \"#utility.yul\":4804:4819   */\n              add\n                /* \"#utility.yul\":4796:4819   */\n              swap1\n              pop\n                /* \"#utility.yul\":4585:4826   */\n              swap2\n              swap1\n              pop\n              jump\t// out\n                /* \"#utility.yul\":4832:4931   */\n            tag_139:\n              0x00\n                /* \"#utility.yul\":4918:4923   */\n              dup2\n                /* \"#utility.yul\":4912:4924   */\n              mload\n                /* \"#utility.yul\":4902:4924   */\n              swap1\n              pop\n                /* \"#utility.yul\":4891:4931   */\n              swap2\n              swap1\n              pop\n              jump\t// out\n                /* \"#utility.yul\":4937:5106   */\n            tag_141:\n              0x00\n                /* \"#utility.yul\":5055:5061   */\n              dup3\n                /* \"#utility.yul\":5050:5053   */\n              dup3\n                /* \"#utility.yul\":5043:5062   */\n              mstore\n                /* \"#utility.yul\":5095:5099   */\n              0x20\n                /* \"#utility.yul\":5090:5093   */\n              dup3\n                /* \"#utility.yul\":5086:5100   */\n              add\n                /* \"#utility.yul\":5071:5100   */\n              swap1\n              pop\n                /* \"#utility.yul\":5033:5106   */\n              swap3\n              swap2\n              pop\n              pop\n              jump\t// out\n                /* \"#utility.yul\":5112:5297   */\n            tag_59:\n              0x00\n                /* \"#utility.yul\":5169:5189   */\n              tag_176\n                /* \"#utility.yul\":5187:5188   */\n              dup3\n                /* \"#utility.yul\":5169:5189   */\n              tag_149\n              jump\t// in\n            tag_176:\n                /* \"#utility.yul\":5164:5189   */\n              swap2\n              pop\n                /* \"#utility.yul\":5203:5223   */\n              tag_177\n                /* \"#utility.yul\":5221:5222   */\n              dup4\n                /* \"#utility.yul\":5203:5223   */\n              tag_149\n              jump\t// in\n            tag_177:\n                /* \"#utility.yul\":5198:5223   */\n              swap3\n              pop\n                /* \"#utility.yul\":5242:5243   */\n              dup3\n                /* \"#utility.yul\":5232:5234   */\n              tag_178\n              jumpi\n                /* \"#utility.yul\":5247:5265   */\n              tag_179\n              tag_180\n              jump\t// in\n            tag_179:\n                /* \"#utility.yul\":5232:5234   */\n            tag_178:\n                /* \"#utility.yul\":5289:5290   */\n              dup3\n                /* \"#utility.yul\":5286:5287   */\n              dup3\n                /* \"#utility.yul\":5282:5291   */\n              div\n                /* \"#utility.yul\":5277:5291   */\n              swap1\n              pop\n                /* \"#utility.yul\":5154:5297   */\n              swap3\n              swap2\n              pop\n              pop\n              jump\t// out\n                /* \"#utility.yul\":5303:5399   */\n            tag_131:\n              0x00\n                /* \"#utility.yul\":5369:5393   */\n              tag_182\n                /* \"#utility.yul\":5387:5392   */\n              dup3\n                /* \"#utility.yul\":5369:5393   */\n              tag_183\n              jump\t// in\n            tag_182:\n                /* \"#utility.yul\":5358:5393   */\n              swap1\n              pop\n                /* \"#utility.yul\":5348:5399   */\n              swap2\n              swap1\n              pop\n              jump\t// out\n                /* \"#utility.yul\":5405:5495   */\n            tag_135:\n              0x00\n                /* \"#utility.yul\":5482:5487   */\n              dup2\n                /* \"#utility.yul\":5475:5488   */\n              iszero\n                /* \"#utility.yul\":5468:5489   */\n              iszero\n                /* \"#utility.yul\":5457:5489   */\n              swap1\n              pop\n                /* \"#utility.yul\":5447:5495   */\n              swap2\n              swap1\n              pop\n              jump\t// out\n                /* \"#utility.yul\":5501:5627   */\n            tag_183:\n              0x00\n                /* \"#utility.yul\":5578:5620   */\n              0xffffffffffffffffffffffffffffffffffffffff\n                /* \"#utility.yul\":5571:5576   */\n              dup3\n                /* \"#utility.yul\":5567:5621   */\n              and\n                /* \"#utility.yul\":5556:5621   */\n              swap1\n              pop\n                /* \"#utility.yul\":5546:5627   */\n              swap2\n              swap1\n              pop\n              jump\t// out\n                /* \"#utility.yul\":5633:5710   */\n            tag_149:\n              0x00\n                /* \"#utility.yul\":5699:5704   */\n              dup2\n                /* \"#utility.yul\":5688:5704   */\n              swap1\n              pop\n                /* \"#utility.yul\":5678:5710   */\n              swap2\n              swap1\n              pop\n              jump\t// out\n                /* \"#utility.yul\":5716:5870   */\n            tag_103:\n                /* \"#utility.yul\":5800:5806   */\n              dup3\n                /* \"#utility.yul\":5795:5798   */\n              dup2\n                /* \"#utility.yul\":5790:5793   */\n              dup4\n                /* \"#utility.yul\":5777:5807   */\n              calldatacopy\n                /* \"#utility.yul\":5862:5863   */\n              0x00\n                /* \"#utility.yul\":5853:5859   */\n              dup4\n                /* \"#utility.yul\":5848:5851   */\n              dup4\n                /* \"#utility.yul\":5844:5860   */\n              add\n                /* \"#utility.yul\":5837:5864   */\n              mstore\n                /* \"#utility.yul\":5767:5870   */\n              pop\n              pop\n              pop\n              jump\t// out\n                /* \"#utility.yul\":5876:6183   */\n            tag_143:\n                /* \"#utility.yul\":5944:5945   */\n              0x00\n                /* \"#utility.yul\":5954:6067   */\n            tag_189:\n                /* \"#utility.yul\":5968:5974   */\n              dup4\n                /* \"#utility.yul\":5965:5966   */\n              dup2\n                /* \"#utility.yul\":5962:5975   */\n              lt\n                /* \"#utility.yul\":5954:6067   */\n              iszero\n              tag_191\n              jumpi\n                /* \"#utility.yul\":6053:6054   */\n              dup1\n                /* \"#utility.yul\":6048:6051   */\n              dup3\n                /* \"#utility.yul\":6044:6055   */\n              add\n                /* \"#utility.yul\":6038:6056   */\n              mload\n                /* \"#utility.yul\":6034:6035   */\n              dup2\n                /* \"#utility.yul\":6029:6032   */\n              dup5\n                /* \"#utility.yul\":6025:6036   */\n              add\n                /* \"#utility.yul\":6018:6057   */\n              mstore\n                /* \"#utility.yul\":5990:5992   */\n              0x20\n                /* \"#utility.yul\":5987:5988   */\n              dup2\n                /* \"#utility.yul\":5983:5993   */\n              add\n                /* \"#utility.yul\":5978:5993   */\n              swap1\n              pop\n                /* \"#utility.yul\":5954:6067   */\n              jump(tag_189)\n            tag_191:\n                /* \"#utility.yul\":6085:6091   */\n              dup4\n                /* \"#utility.yul\":6082:6083   */\n              dup2\n                /* \"#utility.yul\":6079:6092   */\n              gt\n                /* \"#utility.yul\":6076:6078   */\n              iszero\n              tag_192\n              jumpi\n                /* \"#utility.yul\":6165:6166   */\n              0x00\n                /* \"#utility.yul\":6156:6162   */\n              dup5\n                /* \"#utility.yul\":6151:6154   */\n              dup5\n                /* \"#utility.yul\":6147:6163   */\n              add\n                /* \"#utility.yul\":6140:6167   */\n              mstore\n                /* \"#utility.yul\":6076:6078   */\n            tag_192:\n                /* \"#utility.yul\":5925:6183   */\n              pop\n              pop\n              pop\n              pop\n              jump\t// out\n                /* \"#utility.yul\":6189:6509   */\n            tag_65:\n              0x00\n                /* \"#utility.yul\":6270:6271   */\n              0x02\n                /* \"#utility.yul\":6264:6268   */\n              dup3\n                /* \"#utility.yul\":6260:6272   */\n              div\n                /* \"#utility.yul\":6250:6272   */\n              swap1\n              pop\n                /* \"#utility.yul\":6317:6318   */\n              0x01\n                /* \"#utility.yul\":6311:6315   */\n              dup3\n                /* \"#utility.yul\":6307:6319   */\n              and\n                /* \"#utility.yul\":6338:6356   */\n              dup1\n                /* \"#utility.yul\":6328:6330   */\n              tag_194\n              jumpi\n                /* \"#utility.yul\":6394:6398   */\n              0x7f\n                /* \"#utility.yul\":6386:6392   */\n              dup3\n                /* \"#utility.yul\":6382:6399   */\n              and\n                /* \"#utility.yul\":6372:6399   */\n              swap2\n              pop\n                /* \"#utility.yul\":6328:6330   */\n            tag_194:\n                /* \"#utility.yul\":6456:6458   */\n              0x20\n                /* \"#utility.yul\":6448:6454   */\n              dup3\n                /* \"#utility.yul\":6445:6459   */\n              lt\n                /* \"#utility.yul\":6425:6443   */\n              dup2\n                /* \"#utility.yul\":6422:6460   */\n              eq\n                /* \"#utility.yul\":6419:6421   */\n              iszero\n              tag_195\n              jumpi\n                /* \"#utility.yul\":6475:6493   */\n              tag_196\n              tag_197\n              jump\t// in\n            tag_196:\n                /* \"#utility.yul\":6419:6421   */\n            tag_195:\n                /* \"#utility.yul\":6240:6509   */\n              pop\n              swap2\n              swap1\n              pop\n              jump\t// out\n                /* \"#utility.yul\":6515:6796   */\n            tag_166:\n                /* \"#utility.yul\":6598:6625   */\n              tag_199\n                /* \"#utility.yul\":6620:6624   */\n              dup3\n                /* \"#utility.yul\":6598:6625   */\n              tag_145\n              jump\t// in\n            tag_199:\n                /* \"#utility.yul\":6590:6596   */\n              dup2\n                /* \"#utility.yul\":6586:6626   */\n              add\n                /* \"#utility.yul\":6728:6734   */\n              dup2\n                /* \"#utility.yul\":6716:6726   */\n              dup2\n                /* \"#utility.yul\":6713:6735   */\n              lt\n                /* \"#utility.yul\":6692:6710   */\n              0xffffffffffffffff\n                /* \"#utility.yul\":6680:6690   */\n              dup3\n                /* \"#utility.yul\":6677:6711   */\n              gt\n                /* \"#utility.yul\":6674:6736   */\n              or\n                /* \"#utility.yul\":6671:6673   */\n              iszero\n              tag_200\n              jumpi\n                /* \"#utility.yul\":6739:6757   */\n              tag_201\n              tag_171\n              jump\t// in\n            tag_201:\n                /* \"#utility.yul\":6671:6673   */\n            tag_200:\n                /* \"#utility.yul\":6779:6789   */\n              dup1\n                /* \"#utility.yul\":6775:6777   */\n              0x40\n                /* \"#utility.yul\":6768:6790   */\n              mstore\n                /* \"#utility.yul\":6558:6796   */\n              pop\n              pop\n              pop\n              jump\t// out\n                /* \"#utility.yul\":6802:7035   */\n            tag_74:\n              0x00\n                /* \"#utility.yul\":6864:6888   */\n              tag_203\n                /* \"#utility.yul\":6882:6887   */\n              dup3\n                /* \"#utility.yul\":6864:6888   */\n              tag_149\n              jump\t// in\n            tag_203:\n                /* \"#utility.yul\":6855:6888   */\n              swap2\n              pop\n                /* \"#utility.yul\":6910:6976   */\n              0xffffffffffffffffffffffffffffffffffffffffffffffffffffffffffffffff\n                /* \"#utility.yul\":6903:6908   */\n              dup3\n                /* \"#utility.yul\":6900:6977   */\n              eq\n                /* \"#utility.yul\":6897:6899   */\n              iszero\n              tag_204\n              jumpi\n                /* \"#utility.yul\":6980:6998   */\n              tag_205\n              tag_206\n              jump\t// in\n            tag_205:\n                /* \"#utility.yul\":6897:6899   */\n            tag_204:\n                /* \"#utility.yul\":7027:7028   */\n              0x01\n                /* \"#utility.yul\":7020:7025   */\n              dup3\n                /* \"#utility.yul\":7016:7029   */\n              add\n                /* \"#utility.yul\":7009:7029   */\n              swap1\n              pop\n                /* \"#utility.yul\":6845:7035   */\n              swap2\n              swap1\n              pop\n              jump\t// out\n                /* \"#utility.yul\":7041:7221   */\n            tag_206:\n                /* \"#utility.yul\":7089:7166   */\n              0x4e487b7100000000000000000000000000000000000000000000000000000000\n                /* \"#utility.yul\":7086:7087   */\n              0x00\n                /* \"#utility.yul\":7079:7167   */\n              mstore\n                /* \"#utility.yul\":7186:7190   */\n              0x11\n                /* \"#utility.yul\":7183:7184   */\n              0x04\n                /* \"#utility.yul\":7176:7191   */\n              mstore\n                /* \"#utility.yul\":7210:7214   */\n              0x24\n                /* \"#utility.yul\":7207:7208   */\n              0x00\n                /* \"#utility.yul\":7200:7215   */\n              revert\n                /* \"#utility.yul\":7227:7407   */\n            tag_180:\n                /* \"#utility.yul\":7275:7352   */\n              0x4e487b7100000000000000000000000000000000000000000000000000000000\n                /* \"#utility.yul\":7272:7273   */\n              0x00\n                /* \"#utility.yul\":7265:7353   */\n              mstore\n                /* \"#utility.yul\":7372:7376   */\n              0x12\n                /* \"#utility.yul\":7369:7370   */\n              0x04\n                /* \"#utility.yul\":7362:7377   */\n              mstore\n                /* \"#utility.yul\":7396:7400   */\n              0x24\n                /* \"#utility.yul\":7393:7394   */\n              0x00\n                /* \"#utility.yul\":7386:7401   */\n              revert\n                /* \"#utility.yul\":7413:7593   */\n            tag_197:\n                /* \"#utility.yul\":7461:7538   */\n              0x4e487b7100000000000000000000000000000000000000000000000000000000\n                /* \"#utility.yul\":7458:7459   */\n              0x00\n                /* \"#utility.yul\":7451:7539   */\n              mstore\n                /* \"#utility.yul\":7558:7562   */\n              0x22\n                /* \"#utility.yul\":7555:7556   */\n              0x04\n                /* \"#utility.yul\":7548:7563   */\n              mstore\n                /* \"#utility.yul\":7582:7586   */\n              0x24\n                /* \"#utility.yul\":7579:7580   */\n              0x00\n                /* \"#utility.yul\":7572:7587   */\n              revert\n                /* \"#utility.yul\":7599:7779   */\n            tag_171:\n                /* \"#utility.yul\":7647:7724   */\n              0x4e487b7100000000000000000000000000000000000000000000000000000000\n                /* \"#utility.yul\":7644:7645   */\n              0x00\n                /* \"#utility.yul\":7637:7725   */\n              mstore\n                /* \"#utility.yul\":7744:7748   */\n              0x41\n                /* \"#utility.yul\":7741:7742   */\n              0x04\n                /* \"#utility.yul\":7734:7749   */\n              mstore\n                /* \"#utility.yul\":7768:7772   */\n              0x24\n                /* \"#utility.yul\":7765:7766   */\n              0x00\n                /* \"#utility.yul\":7758:7773   */\n              revert\n                /* \"#utility.yul\":7785:7887   */\n            tag_145:\n              0x00\n                /* \"#utility.yul\":7877:7879   */\n              0x1f\n                /* \"#utility.yul\":7873:7880   */\n              not\n                /* \"#utility.yul\":7868:7870   */\n              0x1f\n                /* \"#utility.yul\":7861:7866   */\n              dup4\n                /* \"#utility.yul\":7857:7871   */\n              add\n                /* \"#utility.yul\":7853:7881   */\n              and\n                /* \"#utility.yul\":7843:7881   */\n              swap1\n              pop\n                /* \"#utility.yul\":7833:7887   */\n              swap2\n              swap1\n              pop\n              jump\t// out\n                /* \"#utility.yul\":7893:8015   */\n            tag_107:\n                /* \"#utility.yul\":7966:7990   */\n              tag_213\n                /* \"#utility.yul\":7984:7989   */\n              dup2\n                /* \"#utility.yul\":7966:7990   */\n              tag_131\n              jump\t// in\n            tag_213:\n                /* \"#utility.yul\":7959:7964   */\n              dup2\n                /* \"#utility.yul\":7956:7991   */\n              eq\n                /* \"#utility.yul\":7946:7948   */\n              tag_214\n              jumpi\n                /* \"#utility.yul\":8005:8006   */\n              0x00\n                /* \"#utility.yul\":8002:8003   */\n              dup1\n                /* \"#utility.yul\":7995:8007   */\n              revert\n                /* \"#utility.yul\":7946:7948   */\n            tag_214:\n                /* \"#utility.yul\":7936:8015   */\n              pop\n              jump\t// out\n                /* \"#utility.yul\":8021:8143   */\n            tag_115:\n                /* \"#utility.yul\":8094:8118   */\n              tag_216\n                /* \"#utility.yul\":8112:8117   */\n              dup2\n                /* \"#utility.yul\":8094:8118   */\n              tag_149\n              jump\t// in\n            tag_216:\n                /* \"#utility.yul\":8087:8092   */\n              dup2\n                /* \"#utility.yul\":8084:8119   */\n              eq\n                /* \"#utility.yul\":8074:8076   */\n              tag_217\n              jumpi\n                /* \"#utility.yul\":8133:8134   */\n              0x00\n                /* \"#utility.yul\":8130:8131   */\n              dup1\n                /* \"#utility.yul\":8123:8135   */\n              revert\n                /* \"#utility.yul\":8074:8076   */\n            tag_217:\n                /* \"#utility.yul\":8064:8143   */\n              pop\n              jump\t// out\n\n            auxdata: 0xa264697066735822122004c85e0ff6e4fdfbecbb19f122170e6237354b970f4747129153fbe2e170453d64736f6c63430008030033\n        }\n    }\n\n    auxdata: 0xa2646970667358221220afc3c73ee95aa6f6bcd61b951ac4f00229ab3f54d37bd2854a7e93cd892ba23764736f6c63430008030033\n}\n",
    "bytecode": {
      "linkReferences": {},
      "object": "608060405234801561001057600080fd5b50611346806100206000396000f3fe608060405234801561001057600080fd5b50600436106100415760003560e01c8063141961bc146100465780634acb9d4f14610076578063a3303a7514610094575b600080fd5b610060600480360381019061005b9190610240565b6100b0565b60405161006d919061033d565b60405180910390f35b61007e6100ef565b60405161008b919061031b565b60405180910390f35b6100ae60048036038101906100a99190610240565b61017d565b005b600081815481106100c057600080fd5b906000526020600020016000915054906101000a900473ffffffffffffffffffffffffffffffffffffffff1681565b6060600080548060200260200160405190810160405280929190818152602001828054801561017357602002820191906000526020600020905b8160009054906101000a900473ffffffffffffffffffffffffffffffffffffffff1673ffffffffffffffffffffffffffffffffffffffff1681526020019060010190808311610129575b5050505050905090565b6000813360405161018d9061021e565b610198929190610358565b604051809103906000f0801580156101b4573d6000803e3d6000fd5b5090506000819080600181540180825580915050600190039060005260206000200160009091909190916101000a81548173ffffffffffffffffffffffffffffffffffffffff021916908373ffffffffffffffffffffffffffffffffffffffff1602179055505050565b610edf8061043283390190565b60008135905061023a8161041a565b92915050565b60006020828403121561025257600080fd5b60006102608482850161022b565b91505092915050565b600061027583836102ee565b60208301905092915050565b61028a816103ba565b82525050565b600061029b82610391565b6102a581856103a9565b93506102b083610381565b8060005b838110156102e15781516102c88882610269565b97506102d38361039c565b9250506001810190506102b4565b5085935050505092915050565b6102f7816103f6565b82525050565b610306816103f6565b82525050565b610315816103ec565b82525050565b600060208201905081810360008301526103358184610290565b905092915050565b600060208201905061035260008301846102fd565b92915050565b600060408201905061036d600083018561030c565b61037a6020830184610281565b9392505050565b6000819050602082019050919050565b600081519050919050565b6000602082019050919050565b600082825260208201905092915050565b60006103c5826103cc565b9050919050565b600073ffffffffffffffffffffffffffffffffffffffff82169050919050565b6000819050919050565b600061040182610408565b9050919050565b6000610413826103cc565b9050919050565b610423816103ec565b811461042e57600080fd5b5056fe60806040523480156200001157600080fd5b5060405162000edf38038062000edf8339818101604052810190620000379190620000b5565b80600260006101000a81548173ffffffffffffffffffffffffffffffffffffffff021916908373ffffffffffffffffffffffffffffffffffffffff16021790555081600381905550505062000168565b600081519050620000988162000134565b92915050565b600081519050620000af816200014e565b92915050565b60008060408385031215620000c957600080fd5b6000620000d9858286016200009e565b9250506020620000ec8582860162000087565b9150509250929050565b600062000103826200010a565b9050919050565b600073ffffffffffffffffffffffffffffffffffffffff82169050919050565b6000819050919050565b6200013f81620000f6565b81146200014b57600080fd5b50565b62000159816200012a565b81146200016557600080fd5b50565b610d6780620001786000396000f3fe6080604052600436106100865760003560e01c806382fde0931161005957806382fde0931461015d5780638a9cfd5514610188578063937e09b1146101b1578063d7bb99ba146101dc578063d7d1bbdb146101e657610086565b8063034410061461008b5780630a144391146100b4578063481c6a75146100f157806381d12c581461011c575b600080fd5b34801561009757600080fd5b506100b260048036038101906100ad9190610923565b61020f565b005b3480156100c057600080fd5b506100db60048036038101906100d69190610893565b61034a565b6040516100e891906109cd565b60405180910390f35b3480156100fd57600080fd5b5061010661036a565b60405161011391906109b2565b60405180910390f35b34801561012857600080fd5b50610143600480360381019061013e9190610923565b610390565b6040516101549594939291906109e8565b60405180910390f35b34801561016957600080fd5b5061017261047b565b60405161017f9190610a42565b60405180910390f35b34801561019457600080fd5b506101af60048036038101906101aa91906108bc565b610481565b005b3480156101bd57600080fd5b506101c6610599565b6040516101d39190610a42565b60405180910390f35b6101e461059f565b005b3480156101f257600080fd5b5061020d60048036038101906102089190610923565b610620565b005b600260009054906101000a900473ffffffffffffffffffffffffffffffffffffffff1673ffffffffffffffffffffffffffffffffffffffff163373ffffffffffffffffffffffffffffffffffffffff161461026957600080fd5b6000600160008381526020019081526020016000209050600260045461028f9190610acf565b81600301541161029e57600080fd5b8060020160149054906101000a900460ff16156102ba57600080fd5b8060020160009054906101000a900473ffffffffffffffffffffffffffffffffffffffff1673ffffffffffffffffffffffffffffffffffffffff166108fc82600101549081150290604051600060405180830381858888f19350505050158015610328573d6000803e3d6000fd5b5060018160020160146101000a81548160ff0219169083151502179055505050565b60056020528060005260406000206000915054906101000a900460ff1681565b600260009054906101000a900473ffffffffffffffffffffffffffffffffffffffff1681565b60016020528060005260406000206000915090508060000180546103b390610b8a565b80601f01602080910402602001604051908101604052809291908181526020018280546103df90610b8a565b801561042c5780601f106104015761010080835404028352916020019161042c565b820191906000526020600020905b81548152906001019060200180831161040f57829003601f168201915b5050505050908060010154908060020160009054906101000a900473ffffffffffffffffffffffffffffffffffffffff16908060020160149054906101000a900460ff16908060030154905085565b60045481565b600260009054906101000a900473ffffffffffffffffffffffffffffffffffffffff1673ffffffffffffffffffffffffffffffffffffffff163373ffffffffffffffffffffffffffffffffffffffff16146104db57600080fd5b6000600160008060008154809291906104f390610bed565b91905055815260200190815260200160002090508381600001908051906020019061051f92919061075e565b50828160010181905550818160020160006101000a81548173ffffffffffffffffffffffffffffffffffffffff021916908373ffffffffffffffffffffffffffffffffffffffff16021790555060008160020160146101000a81548160ff0219169083151502179055506000816003018190555050505050565b60035481565b6003543410156105ae57600080fd5b600460008154809291906105c190610bed565b91905055506001600560003373ffffffffffffffffffffffffffffffffffffffff1673ffffffffffffffffffffffffffffffffffffffff16815260200190815260200160002060006101000a81548160ff021916908315150217905550565b6000600160008381526020019081526020016000209050600560003373ffffffffffffffffffffffffffffffffffffffff1673ffffffffffffffffffffffffffffffffffffffff16815260200190815260200160002060009054906101000a900460ff1661068d57600080fd5b8060040160003373ffffffffffffffffffffffffffffffffffffffff1673ffffffffffffffffffffffffffffffffffffffff16815260200190815260200160002060009054906101000a900460ff16156106e657600080fd5b8060030160008154809291906106fb90610bed565b919050555060018160040160003373ffffffffffffffffffffffffffffffffffffffff1673ffffffffffffffffffffffffffffffffffffffff16815260200190815260200160002060006101000a81548160ff0219169083151502179055505050565b82805461076a90610b8a565b90600052602060002090601f01602090048101928261078c57600085556107d3565b82601f106107a557805160ff19168380011785556107d3565b828001600101855582156107d3579182015b828111156107d25782518255916020019190600101906107b7565b5b5090506107e091906107e4565b5090565b5b808211156107fd5760008160009055506001016107e5565b5090565b600061081461080f84610a82565b610a5d565b90508281526020810184848401111561082c57600080fd5b610837848285610b48565b509392505050565b60008135905061084e81610d03565b92915050565b600082601f83011261086557600080fd5b8135610875848260208601610801565b91505092915050565b60008135905061088d81610d1a565b92915050565b6000602082840312156108a557600080fd5b60006108b38482850161083f565b91505092915050565b6000806000606084860312156108d157600080fd5b600084013567ffffffffffffffff8111156108eb57600080fd5b6108f786828701610854565b93505060206109088682870161087e565b92505060406109198682870161083f565b9150509250925092565b60006020828403121561093557600080fd5b60006109438482850161087e565b91505092915050565b61095581610b00565b82525050565b61096481610b12565b82525050565b600061097582610ab3565b61097f8185610abe565b935061098f818560208601610b57565b61099881610cf2565b840191505092915050565b6109ac81610b3e565b82525050565b60006020820190506109c7600083018461094c565b92915050565b60006020820190506109e2600083018461095b565b92915050565b600060a0820190508181036000830152610a02818861096a565b9050610a1160208301876109a3565b610a1e604083018661094c565b610a2b606083018561095b565b610a3860808301846109a3565b9695505050505050565b6000602082019050610a5760008301846109a3565b92915050565b6000610a67610a78565b9050610a738282610bbc565b919050565b6000604051905090565b600067ffffffffffffffff821115610a9d57610a9c610cc3565b5b610aa682610cf2565b9050602081019050919050565b600081519050919050565b600082825260208201905092915050565b6000610ada82610b3e565b9150610ae583610b3e565b925082610af557610af4610c65565b5b828204905092915050565b6000610b0b82610b1e565b9050919050565b60008115159050919050565b600073ffffffffffffffffffffffffffffffffffffffff82169050919050565b6000819050919050565b82818337600083830152505050565b60005b83811015610b75578082015181840152602081019050610b5a565b83811115610b84576000848401525b50505050565b60006002820490506001821680610ba257607f821691505b60208210811415610bb657610bb5610c94565b5b50919050565b610bc582610cf2565b810181811067ffffffffffffffff82111715610be457610be3610cc3565b5b80604052505050565b6000610bf882610b3e565b91507fffffffffffffffffffffffffffffffffffffffffffffffffffffffffffffffff821415610c2b57610c2a610c36565b5b600182019050919050565b7f4e487b7100000000000000000000000000000000000000000000000000000000600052601160045260246000fd5b7f4e487b7100000000000000000000000000000000000000000000000000000000600052601260045260246000fd5b7f4e487b7100000000000000000000000000000000000000000000000000000000600052602260045260246000fd5b7f4e487b7100000000000000000000000000000000000000000000000000000000600052604160045260246000fd5b6000601f19601f8301169050919050565b610d0c81610b00565b8114610d1757600080fd5b50565b610d2381610b3e565b8114610d2e57600080fd5b5056fea264697066735822122004c85e0ff6e4fdfbecbb19f122170e6237354b970f4747129153fbe2e170453d64736f6c63430008030033a2646970667358221220afc3c73ee95aa6f6bcd61b951ac4f00229ab3f54d37bd2854a7e93cd892ba23764736f6c63430008030033",
      "opcodes": "PUSH1 0x80 PUSH1 0x40 MSTORE CALLVALUE DUP1 ISZERO PUSH2 0x10 JUMPI PUSH1 0x0 DUP1 REVERT JUMPDEST POP PUSH2 0x1346 DUP1 PUSH2 0x20 PUSH1 0x0 CODECOPY PUSH1 0x0 RETURN INVALID PUSH1 0x80 PUSH1 0x40 MSTORE CALLVALUE DUP1 ISZERO PUSH2 0x10 JUMPI PUSH1 0x0 DUP1 REVERT JUMPDEST POP PUSH1 0x4 CALLDATASIZE LT PUSH2 0x41 JUMPI PUSH1 0x0 CALLDATALOAD PUSH1 0xE0 SHR DUP1 PUSH4 0x141961BC EQ PUSH2 0x46 JUMPI DUP1 PUSH4 0x4ACB9D4F EQ PUSH2 0x76 JUMPI DUP1 PUSH4 0xA3303A75 EQ PUSH2 0x94 JUMPI JUMPDEST PUSH1 0x0 DUP1 REVERT JUMPDEST PUSH2 0x60 PUSH1 0x4 DUP1 CALLDATASIZE SUB DUP2 ADD SWAP1 PUSH2 0x5B SWAP2 SWAP1 PUSH2 0x240 JUMP JUMPDEST PUSH2 0xB0 JUMP JUMPDEST PUSH1 0x40 MLOAD PUSH2 0x6D SWAP2 SWAP1 PUSH2 0x33D JUMP JUMPDEST PUSH1 0x40 MLOAD DUP1 SWAP2 SUB SWAP1 RETURN JUMPDEST PUSH2 0x7E PUSH2 0xEF JUMP JUMPDEST PUSH1 0x40 MLOAD PUSH2 0x8B SWAP2 SWAP1 PUSH2 0x31B JUMP JUMPDEST PUSH1 0x40 MLOAD DUP1 SWAP2 SUB SWAP1 RETURN JUMPDEST PUSH2 0xAE PUSH1 0x4 DUP1 CALLDATASIZE SUB DUP2 ADD SWAP1 PUSH2 0xA9 SWAP2 SWAP1 PUSH2 0x240 JUMP JUMPDEST PUSH2 0x17D JUMP JUMPDEST STOP JUMPDEST PUSH1 0x0 DUP2 DUP2 SLOAD DUP2 LT PUSH2 0xC0 JUMPI PUSH1 0x0 DUP1 REVERT JUMPDEST SWAP1 PUSH1 0x0 MSTORE PUSH1 0x20 PUSH1 0x0 KECCAK256 ADD PUSH1 0x0 SWAP2 POP SLOAD SWAP1 PUSH2 0x100 EXP SWAP1 DIV PUSH20 0xFFFFFFFFFFFFFFFFFFFFFFFFFFFFFFFFFFFFFFFF AND DUP2 JUMP JUMPDEST PUSH1 0x60 PUSH1 0x0 DUP1 SLOAD DUP1 PUSH1 0x20 MUL PUSH1 0x20 ADD PUSH1 0x40 MLOAD SWAP1 DUP2 ADD PUSH1 0x40 MSTORE DUP1 SWAP3 SWAP2 SWAP1 DUP2 DUP2 MSTORE PUSH1 0x20 ADD DUP3 DUP1 SLOAD DUP1 ISZERO PUSH2 0x173 JUMPI PUSH1 0x20 MUL DUP3 ADD SWAP2 SWAP1 PUSH1 0x0 MSTORE PUSH1 0x20 PUSH1 0x0 KECCAK256 SWAP1 JUMPDEST DUP2 PUSH1 0x0 SWAP1 SLOAD SWAP1 PUSH2 0x100 EXP SWAP1 DIV PUSH20 0xFFFFFFFFFFFFFFFFFFFFFFFFFFFFFFFFFFFFFFFF AND PUSH20 0xFFFFFFFFFFFFFFFFFFFFFFFFFFFFFFFFFFFFFFFF AND DUP2 MSTORE PUSH1 0x20 ADD SWAP1 PUSH1 0x1 ADD SWAP1 DUP1 DUP4 GT PUSH2 0x129 JUMPI JUMPDEST POP POP POP POP POP SWAP1 POP SWAP1 JUMP JUMPDEST PUSH1 0x0 DUP2 CALLER PUSH1 0x40 MLOAD PUSH2 0x18D SWAP1 PUSH2 0x21E JUMP JUMPDEST PUSH2 0x198 SWAP3 SWAP2 SWAP1 PUSH2 0x358 JUMP JUMPDEST PUSH1 0x40 MLOAD DUP1 SWAP2 SUB SWAP1 PUSH1 0x0 CREATE DUP1 ISZERO DUP1 ISZERO PUSH2 0x1B4 JUMPI RETURNDATASIZE PUSH1 0x0 DUP1 RETURNDATACOPY RETURNDATASIZE PUSH1 0x0 REVERT JUMPDEST POP SWAP1 POP PUSH1 0x0 DUP2 SWAP1 DUP1 PUSH1 0x1 DUP2 SLOAD ADD DUP1 DUP3 SSTORE DUP1 SWAP2 POP POP PUSH1 0x1 SWAP1 SUB SWAP1 PUSH1 0x0 MSTORE PUSH1 0x20 PUSH1 0x0 KECCAK256 ADD PUSH1 0x0 SWAP1 SWAP2 SWAP1 SWAP2 SWAP1 SWAP2 PUSH2 0x100 EXP DUP2 SLOAD DUP2 PUSH20 0xFFFFFFFFFFFFFFFFFFFFFFFFFFFFFFFFFFFFFFFF MUL NOT AND SWAP1 DUP4 PUSH20 0xFFFFFFFFFFFFFFFFFFFFFFFFFFFFFFFFFFFFFFFF AND MUL OR SWAP1 SSTORE POP POP POP JUMP JUMPDEST PUSH2 0xEDF DUP1 PUSH2 0x432 DUP4 CODECOPY ADD SWAP1 JUMP JUMPDEST PUSH1 0x0 DUP2 CALLDATALOAD SWAP1 POP PUSH2 0x23A DUP2 PUSH2 0x41A JUMP JUMPDEST SWAP3 SWAP2 POP POP JUMP JUMPDEST PUSH1 0x0 PUSH1 0x20 DUP3 DUP5 SUB SLT ISZERO PUSH2 0x252 JUMPI PUSH1 0x0 DUP1 REVERT JUMPDEST PUSH1 0x0 PUSH2 0x260 DUP5 DUP3 DUP6 ADD PUSH2 0x22B JUMP JUMPDEST SWAP2 POP POP SWAP3 SWAP2 POP POP JUMP JUMPDEST PUSH1 0x0 PUSH2 0x275 DUP4 DUP4 PUSH2 0x2EE JUMP JUMPDEST PUSH1 0x20 DUP4 ADD SWAP1 POP SWAP3 SWAP2 POP POP JUMP JUMPDEST PUSH2 0x28A DUP2 PUSH2 0x3BA JUMP JUMPDEST DUP3 MSTORE POP POP JUMP JUMPDEST PUSH1 0x0 PUSH2 0x29B DUP3 PUSH2 0x391 JUMP JUMPDEST PUSH2 0x2A5 DUP2 DUP6 PUSH2 0x3A9 JUMP JUMPDEST SWAP4 POP PUSH2 0x2B0 DUP4 PUSH2 0x381 JUMP JUMPDEST DUP1 PUSH1 0x0 JUMPDEST DUP4 DUP2 LT ISZERO PUSH2 0x2E1 JUMPI DUP2 MLOAD PUSH2 0x2C8 DUP9 DUP3 PUSH2 0x269 JUMP JUMPDEST SWAP8 POP PUSH2 0x2D3 DUP4 PUSH2 0x39C JUMP JUMPDEST SWAP3 POP POP PUSH1 0x1 DUP2 ADD SWAP1 POP PUSH2 0x2B4 JUMP JUMPDEST POP DUP6 SWAP4 POP POP POP POP SWAP3 SWAP2 POP POP JUMP JUMPDEST PUSH2 0x2F7 DUP2 PUSH2 0x3F6 JUMP JUMPDEST DUP3 MSTORE POP POP JUMP JUMPDEST PUSH2 0x306 DUP2 PUSH2 0x3F6 JUMP JUMPDEST DUP3 MSTORE POP POP JUMP JUMPDEST PUSH2 0x315 DUP2 PUSH2 0x3EC JUMP JUMPDEST DUP3 MSTORE POP POP JUMP JUMPDEST PUSH1 0x0 PUSH1 0x20 DUP3 ADD SWAP1 POP DUP2 DUP2 SUB PUSH1 0x0 DUP4 ADD MSTORE PUSH2 0x335 DUP2 DUP5 PUSH2 0x290 JUMP JUMPDEST SWAP1 POP SWAP3 SWAP2 POP POP JUMP JUMPDEST PUSH1 0x0 PUSH1 0x20 DUP3 ADD SWAP1 POP PUSH2 0x352 PUSH1 0x0 DUP4 ADD DUP5 PUSH2 0x2FD JUMP JUMPDEST SWAP3 SWAP2 POP POP JUMP JUMPDEST PUSH1 0x0 PUSH1 0x40 DUP3 ADD SWAP1 POP PUSH2 0x36D PUSH1 0x0 DUP4 ADD DUP6 PUSH2 0x30C JUMP JUMPDEST PUSH2 0x37A PUSH1 0x20 DUP4 ADD DUP5 PUSH2 0x281 JUMP JUMPDEST SWAP4 SWAP3 POP POP POP JUMP JUMPDEST PUSH1 0x0 DUP2 SWAP1 POP PUSH1 0x20 DUP3 ADD SWAP1 POP SWAP2 SWAP1 POP JUMP JUMPDEST PUSH1 0x0 DUP2 MLOAD SWAP1 POP SWAP2 SWAP1 POP JUMP JUMPDEST PUSH1 0x0 PUSH1 0x20 DUP3 ADD SWAP1 POP SWAP2 SWAP1 POP JUMP JUMPDEST PUSH1 0x0 DUP3 DUP3 MSTORE PUSH1 0x20 DUP3 ADD SWAP1 POP SWAP3 SWAP2 POP POP JUMP JUMPDEST PUSH1 0x0 PUSH2 0x3C5 DUP3 PUSH2 0x3CC JUMP JUMPDEST SWAP1 POP SWAP2 SWAP1 POP JUMP JUMPDEST PUSH1 0x0 PUSH20 0xFFFFFFFFFFFFFFFFFFFFFFFFFFFFFFFFFFFFFFFF DUP3 AND SWAP1 POP SWAP2 SWAP1 POP JUMP JUMPDEST PUSH1 0x0 DUP2 SWAP1 POP SWAP2 SWAP1 POP JUMP JUMPDEST PUSH1 0x0 PUSH2 0x401 DUP3 PUSH2 0x408 JUMP JUMPDEST SWAP1 POP SWAP2 SWAP1 POP JUMP JUMPDEST PUSH1 0x0 PUSH2 0x413 DUP3 PUSH2 0x3CC JUMP JUMPDEST SWAP1 POP SWAP2 SWAP1 POP JUMP JUMPDEST PUSH2 0x423 DUP2 PUSH2 0x3EC JUMP JUMPDEST DUP2 EQ PUSH2 0x42E JUMPI PUSH1 0x0 DUP1 REVERT JUMPDEST POP JUMP INVALID PUSH1 0x80 PUSH1 0x40 MSTORE CALLVALUE DUP1 ISZERO PUSH3 0x11 JUMPI PUSH1 0x0 DUP1 REVERT JUMPDEST POP PUSH1 0x40 MLOAD PUSH3 0xEDF CODESIZE SUB DUP1 PUSH3 0xEDF DUP4 CODECOPY DUP2 DUP2 ADD PUSH1 0x40 MSTORE DUP2 ADD SWAP1 PUSH3 0x37 SWAP2 SWAP1 PUSH3 0xB5 JUMP JUMPDEST DUP1 PUSH1 0x2 PUSH1 0x0 PUSH2 0x100 EXP DUP2 SLOAD DUP2 PUSH20 0xFFFFFFFFFFFFFFFFFFFFFFFFFFFFFFFFFFFFFFFF MUL NOT AND SWAP1 DUP4 PUSH20 0xFFFFFFFFFFFFFFFFFFFFFFFFFFFFFFFFFFFFFFFF AND MUL OR SWAP1 SSTORE POP DUP2 PUSH1 0x3 DUP2 SWAP1 SSTORE POP POP POP PUSH3 0x168 JUMP JUMPDEST PUSH1 0x0 DUP2 MLOAD SWAP1 POP PUSH3 0x98 DUP2 PUSH3 0x134 JUMP JUMPDEST SWAP3 SWAP2 POP POP JUMP JUMPDEST PUSH1 0x0 DUP2 MLOAD SWAP1 POP PUSH3 0xAF DUP2 PUSH3 0x14E JUMP JUMPDEST SWAP3 SWAP2 POP POP JUMP JUMPDEST PUSH1 0x0 DUP1 PUSH1 0x40 DUP4 DUP6 SUB SLT ISZERO PUSH3 0xC9 JUMPI PUSH1 0x0 DUP1 REVERT JUMPDEST PUSH1 0x0 PUSH3 0xD9 DUP6 DUP3 DUP7 ADD PUSH3 0x9E JUMP JUMPDEST SWAP3 POP POP PUSH1 0x20 PUSH3 0xEC DUP6 DUP3 DUP7 ADD PUSH3 0x87 JUMP JUMPDEST SWAP2 POP POP SWAP3 POP SWAP3 SWAP1 POP JUMP JUMPDEST PUSH1 0x0 PUSH3 0x103 DUP3 PUSH3 0x10A JUMP JUMPDEST SWAP1 POP SWAP2 SWAP1 POP JUMP JUMPDEST PUSH1 0x0 PUSH20 0xFFFFFFFFFFFFFFFFFFFFFFFFFFFFFFFFFFFFFFFF DUP3 AND SWAP1 POP SWAP2 SWAP1 POP JUMP JUMPDEST PUSH1 0x0 DUP2 SWAP1 POP SWAP2 SWAP1 POP JUMP JUMPDEST PUSH3 0x13F DUP2 PUSH3 0xF6 JUMP JUMPDEST DUP2 EQ PUSH3 0x14B JUMPI PUSH1 0x0 DUP1 REVERT JUMPDEST POP JUMP JUMPDEST PUSH3 0x159 DUP2 PUSH3 0x12A JUMP JUMPDEST DUP2 EQ PUSH3 0x165 JUMPI PUSH1 0x0 DUP1 REVERT JUMPDEST POP JUMP JUMPDEST PUSH2 0xD67 DUP1 PUSH3 0x178 PUSH1 0x0 CODECOPY PUSH1 0x0 RETURN INVALID PUSH1 0x80 PUSH1 0x40 MSTORE PUSH1 0x4 CALLDATASIZE LT PUSH2 0x86 JUMPI PUSH1 0x0 CALLDATALOAD PUSH1 0xE0 SHR DUP1 PUSH4 0x82FDE093 GT PUSH2 0x59 JUMPI DUP1 PUSH4 0x82FDE093 EQ PUSH2 0x15D JUMPI DUP1 PUSH4 0x8A9CFD55 EQ PUSH2 0x188 JUMPI DUP1 PUSH4 0x937E09B1 EQ PUSH2 0x1B1 JUMPI DUP1 PUSH4 0xD7BB99BA EQ PUSH2 0x1DC JUMPI DUP1 PUSH4 0xD7D1BBDB EQ PUSH2 0x1E6 JUMPI PUSH2 0x86 JUMP JUMPDEST DUP1 PUSH4 0x3441006 EQ PUSH2 0x8B JUMPI DUP1 PUSH4 0xA144391 EQ PUSH2 0xB4 JUMPI DUP1 PUSH4 0x481C6A75 EQ PUSH2 0xF1 JUMPI DUP1 PUSH4 0x81D12C58 EQ PUSH2 0x11C JUMPI JUMPDEST PUSH1 0x0 DUP1 REVERT JUMPDEST CALLVALUE DUP1 ISZERO PUSH2 0x97 JUMPI PUSH1 0x0 DUP1 REVERT JUMPDEST POP PUSH2 0xB2 PUSH1 0x4 DUP1 CALLDATASIZE SUB DUP2 ADD SWAP1 PUSH2 0xAD SWAP2 SWAP1 PUSH2 0x923 JUMP JUMPDEST PUSH2 0x20F JUMP JUMPDEST STOP JUMPDEST CALLVALUE DUP1 ISZERO PUSH2 0xC0 JUMPI PUSH1 0x0 DUP1 REVERT JUMPDEST POP PUSH2 0xDB PUSH1 0x4 DUP1 CALLDATASIZE SUB DUP2 ADD SWAP1 PUSH2 0xD6 SWAP2 SWAP1 PUSH2 0x893 JUMP JUMPDEST PUSH2 0x34A JUMP JUMPDEST PUSH1 0x40 MLOAD PUSH2 0xE8 SWAP2 SWAP1 PUSH2 0x9CD JUMP JUMPDEST PUSH1 0x40 MLOAD DUP1 SWAP2 SUB SWAP1 RETURN JUMPDEST CALLVALUE DUP1 ISZERO PUSH2 0xFD JUMPI PUSH1 0x0 DUP1 REVERT JUMPDEST POP PUSH2 0x106 PUSH2 0x36A JUMP JUMPDEST PUSH1 0x40 MLOAD PUSH2 0x113 SWAP2 SWAP1 PUSH2 0x9B2 JUMP JUMPDEST PUSH1 0x40 MLOAD DUP1 SWAP2 SUB SWAP1 RETURN JUMPDEST CALLVALUE DUP1 ISZERO PUSH2 0x128 JUMPI PUSH1 0x0 DUP1 REVERT JUMPDEST POP PUSH2 0x143 PUSH1 0x4 DUP1 CALLDATASIZE SUB DUP2 ADD SWAP1 PUSH2 0x13E SWAP2 SWAP1 PUSH2 0x923 JUMP JUMPDEST PUSH2 0x390 JUMP JUMPDEST PUSH1 0x40 MLOAD PUSH2 0x154 SWAP6 SWAP5 SWAP4 SWAP3 SWAP2 SWAP1 PUSH2 0x9E8 JUMP JUMPDEST PUSH1 0x40 MLOAD DUP1 SWAP2 SUB SWAP1 RETURN JUMPDEST CALLVALUE DUP1 ISZERO PUSH2 0x169 JUMPI PUSH1 0x0 DUP1 REVERT JUMPDEST POP PUSH2 0x172 PUSH2 0x47B JUMP JUMPDEST PUSH1 0x40 MLOAD PUSH2 0x17F SWAP2 SWAP1 PUSH2 0xA42 JUMP JUMPDEST PUSH1 0x40 MLOAD DUP1 SWAP2 SUB SWAP1 RETURN JUMPDEST CALLVALUE DUP1 ISZERO PUSH2 0x194 JUMPI PUSH1 0x0 DUP1 REVERT JUMPDEST POP PUSH2 0x1AF PUSH1 0x4 DUP1 CALLDATASIZE SUB DUP2 ADD SWAP1 PUSH2 0x1AA SWAP2 SWAP1 PUSH2 0x8BC JUMP JUMPDEST PUSH2 0x481 JUMP JUMPDEST STOP JUMPDEST CALLVALUE DUP1 ISZERO PUSH2 0x1BD JUMPI PUSH1 0x0 DUP1 REVERT JUMPDEST POP PUSH2 0x1C6 PUSH2 0x599 JUMP JUMPDEST PUSH1 0x40 MLOAD PUSH2 0x1D3 SWAP2 SWAP1 PUSH2 0xA42 JUMP JUMPDEST PUSH1 0x40 MLOAD DUP1 SWAP2 SUB SWAP1 RETURN JUMPDEST PUSH2 0x1E4 PUSH2 0x59F JUMP JUMPDEST STOP JUMPDEST CALLVALUE DUP1 ISZERO PUSH2 0x1F2 JUMPI PUSH1 0x0 DUP1 REVERT JUMPDEST POP PUSH2 0x20D PUSH1 0x4 DUP1 CALLDATASIZE SUB DUP2 ADD SWAP1 PUSH2 0x208 SWAP2 SWAP1 PUSH2 0x923 JUMP JUMPDEST PUSH2 0x620 JUMP JUMPDEST STOP JUMPDEST PUSH1 0x2 PUSH1 0x0 SWAP1 SLOAD SWAP1 PUSH2 0x100 EXP SWAP1 DIV PUSH20 0xFFFFFFFFFFFFFFFFFFFFFFFFFFFFFFFFFFFFFFFF AND PUSH20 0xFFFFFFFFFFFFFFFFFFFFFFFFFFFFFFFFFFFFFFFF AND CALLER PUSH20 0xFFFFFFFFFFFFFFFFFFFFFFFFFFFFFFFFFFFFFFFF AND EQ PUSH2 0x269 JUMPI PUSH1 0x0 DUP1 REVERT JUMPDEST PUSH1 0x0 PUSH1 0x1 PUSH1 0x0 DUP4 DUP2 MSTORE PUSH1 0x20 ADD SWAP1 DUP2 MSTORE PUSH1 0x20 ADD PUSH1 0x0 KECCAK256 SWAP1 POP PUSH1 0x2 PUSH1 0x4 SLOAD PUSH2 0x28F SWAP2 SWAP1 PUSH2 0xACF JUMP JUMPDEST DUP2 PUSH1 0x3 ADD SLOAD GT PUSH2 0x29E JUMPI PUSH1 0x0 DUP1 REVERT JUMPDEST DUP1 PUSH1 0x2 ADD PUSH1 0x14 SWAP1 SLOAD SWAP1 PUSH2 0x100 EXP SWAP1 DIV PUSH1 0xFF AND ISZERO PUSH2 0x2BA JUMPI PUSH1 0x0 DUP1 REVERT JUMPDEST DUP1 PUSH1 0x2 ADD PUSH1 0x0 SWAP1 SLOAD SWAP1 PUSH2 0x100 EXP SWAP1 DIV PUSH20 0xFFFFFFFFFFFFFFFFFFFFFFFFFFFFFFFFFFFFFFFF AND PUSH20 0xFFFFFFFFFFFFFFFFFFFFFFFFFFFFFFFFFFFFFFFF AND PUSH2 0x8FC DUP3 PUSH1 0x1 ADD SLOAD SWAP1 DUP2 ISZERO MUL SWAP1 PUSH1 0x40 MLOAD PUSH1 0x0 PUSH1 0x40 MLOAD DUP1 DUP4 SUB DUP2 DUP6 DUP9 DUP9 CALL SWAP4 POP POP POP POP ISZERO DUP1 ISZERO PUSH2 0x328 JUMPI RETURNDATASIZE PUSH1 0x0 DUP1 RETURNDATACOPY RETURNDATASIZE PUSH1 0x0 REVERT JUMPDEST POP PUSH1 0x1 DUP2 PUSH1 0x2 ADD PUSH1 0x14 PUSH2 0x100 EXP DUP2 SLOAD DUP2 PUSH1 0xFF MUL NOT AND SWAP1 DUP4 ISZERO ISZERO MUL OR SWAP1 SSTORE POP POP POP JUMP JUMPDEST PUSH1 0x5 PUSH1 0x20 MSTORE DUP1 PUSH1 0x0 MSTORE PUSH1 0x40 PUSH1 0x0 KECCAK256 PUSH1 0x0 SWAP2 POP SLOAD SWAP1 PUSH2 0x100 EXP SWAP1 DIV PUSH1 0xFF AND DUP2 JUMP JUMPDEST PUSH1 0x2 PUSH1 0x0 SWAP1 SLOAD SWAP1 PUSH2 0x100 EXP SWAP1 DIV PUSH20 0xFFFFFFFFFFFFFFFFFFFFFFFFFFFFFFFFFFFFFFFF AND DUP2 JUMP JUMPDEST PUSH1 0x1 PUSH1 0x20 MSTORE DUP1 PUSH1 0x0 MSTORE PUSH1 0x40 PUSH1 0x0 KECCAK256 PUSH1 0x0 SWAP2 POP SWAP1 POP DUP1 PUSH1 0x0 ADD DUP1 SLOAD PUSH2 0x3B3 SWAP1 PUSH2 0xB8A JUMP JUMPDEST DUP1 PUSH1 0x1F ADD PUSH1 0x20 DUP1 SWAP2 DIV MUL PUSH1 0x20 ADD PUSH1 0x40 MLOAD SWAP1 DUP2 ADD PUSH1 0x40 MSTORE DUP1 SWAP3 SWAP2 SWAP1 DUP2 DUP2 MSTORE PUSH1 0x20 ADD DUP3 DUP1 SLOAD PUSH2 0x3DF SWAP1 PUSH2 0xB8A JUMP JUMPDEST DUP1 ISZERO PUSH2 0x42C JUMPI DUP1 PUSH1 0x1F LT PUSH2 0x401 JUMPI PUSH2 0x100 DUP1 DUP4 SLOAD DIV MUL DUP4 MSTORE SWAP2 PUSH1 0x20 ADD SWAP2 PUSH2 0x42C JUMP JUMPDEST DUP3 ADD SWAP2 SWAP1 PUSH1 0x0 MSTORE PUSH1 0x20 PUSH1 0x0 KECCAK256 SWAP1 JUMPDEST DUP2 SLOAD DUP2 MSTORE SWAP1 PUSH1 0x1 ADD SWAP1 PUSH1 0x20 ADD DUP1 DUP4 GT PUSH2 0x40F JUMPI DUP3 SWAP1 SUB PUSH1 0x1F AND DUP3 ADD SWAP2 JUMPDEST POP POP POP POP POP SWAP1 DUP1 PUSH1 0x1 ADD SLOAD SWAP1 DUP1 PUSH1 0x2 ADD PUSH1 0x0 SWAP1 SLOAD SWAP1 PUSH2 0x100 EXP SWAP1 DIV PUSH20 0xFFFFFFFFFFFFFFFFFFFFFFFFFFFFFFFFFFFFFFFF AND SWAP1 DUP1 PUSH1 0x2 ADD PUSH1 0x14 SWAP1 SLOAD SWAP1 PUSH2 0x100 EXP SWAP1 DIV PUSH1 0xFF AND SWAP1 DUP1 PUSH1 0x3 ADD SLOAD SWAP1 POP DUP6 JUMP JUMPDEST PUSH1 0x4 SLOAD DUP2 JUMP JUMPDEST PUSH1 0x2 PUSH1 0x0 SWAP1 SLOAD SWAP1 PUSH2 0x100 EXP SWAP1 DIV PUSH20 0xFFFFFFFFFFFFFFFFFFFFFFFFFFFFFFFFFFFFFFFF AND PUSH20 0xFFFFFFFFFFFFFFFFFFFFFFFFFFFFFFFFFFFFFFFF AND CALLER PUSH20 0xFFFFFFFFFFFFFFFFFFFFFFFFFFFFFFFFFFFFFFFF AND EQ PUSH2 0x4DB JUMPI PUSH1 0x0 DUP1 REVERT JUMPDEST PUSH1 0x0 PUSH1 0x1 PUSH1 0x0 DUP1 PUSH1 0x0 DUP2 SLOAD DUP1 SWAP3 SWAP2 SWAP1 PUSH2 0x4F3 SWAP1 PUSH2 0xBED JUMP JUMPDEST SWAP2 SWAP1 POP SSTORE DUP2 MSTORE PUSH1 0x20 ADD SWAP1 DUP2 MSTORE PUSH1 0x20 ADD PUSH1 0x0 KECCAK256 SWAP1 POP DUP4 DUP2 PUSH1 0x0 ADD SWAP1 DUP1 MLOAD SWAP1 PUSH1 0x20 ADD SWAP1 PUSH2 0x51F SWAP3 SWAP2 SWAP1 PUSH2 0x75E JUMP JUMPDEST POP DUP3 DUP2 PUSH1 0x1 ADD DUP2 SWAP1 SSTORE POP DUP2 DUP2 PUSH1 0x2 ADD PUSH1 0x0 PUSH2 0x100 EXP DUP2 SLOAD DUP2 PUSH20 0xFFFFFFFFFFFFFFFFFFFFFFFFFFFFFFFFFFFFFFFF MUL NOT AND SWAP1 DUP4 PUSH20 0xFFFFFFFFFFFFFFFFFFFFFFFFFFFFFFFFFFFFFFFF AND MUL OR SWAP1 SSTORE POP PUSH1 0x0 DUP2 PUSH1 0x2 ADD PUSH1 0x14 PUSH2 0x100 EXP DUP2 SLOAD DUP2 PUSH1 0xFF MUL NOT AND SWAP1 DUP4 ISZERO ISZERO MUL OR SWAP1 SSTORE POP PUSH1 0x0 DUP2 PUSH1 0x3 ADD DUP2 SWAP1 SSTORE POP POP POP POP POP JUMP JUMPDEST PUSH1 0x3 SLOAD DUP2 JUMP JUMPDEST PUSH1 0x3 SLOAD CALLVALUE LT ISZERO PUSH2 0x5AE JUMPI PUSH1 0x0 DUP1 REVERT JUMPDEST PUSH1 0x4 PUSH1 0x0 DUP2 SLOAD DUP1 SWAP3 SWAP2 SWAP1 PUSH2 0x5C1 SWAP1 PUSH2 0xBED JUMP JUMPDEST SWAP2 SWAP1 POP SSTORE POP PUSH1 0x1 PUSH1 0x5 PUSH1 0x0 CALLER PUSH20 0xFFFFFFFFFFFFFFFFFFFFFFFFFFFFFFFFFFFFFFFF AND PUSH20 0xFFFFFFFFFFFFFFFFFFFFFFFFFFFFFFFFFFFFFFFF AND DUP2 MSTORE PUSH1 0x20 ADD SWAP1 DUP2 MSTORE PUSH1 0x20 ADD PUSH1 0x0 KECCAK256 PUSH1 0x0 PUSH2 0x100 EXP DUP2 SLOAD DUP2 PUSH1 0xFF MUL NOT AND SWAP1 DUP4 ISZERO ISZERO MUL OR SWAP1 SSTORE POP JUMP JUMPDEST PUSH1 0x0 PUSH1 0x1 PUSH1 0x0 DUP4 DUP2 MSTORE PUSH1 0x20 ADD SWAP1 DUP2 MSTORE PUSH1 0x20 ADD PUSH1 0x0 KECCAK256 SWAP1 POP PUSH1 0x5 PUSH1 0x0 CALLER PUSH20 0xFFFFFFFFFFFFFFFFFFFFFFFFFFFFFFFFFFFFFFFF AND PUSH20 0xFFFFFFFFFFFFFFFFFFFFFFFFFFFFFFFFFFFFFFFF AND DUP2 MSTORE PUSH1 0x20 ADD SWAP1 DUP2 MSTORE PUSH1 0x20 ADD PUSH1 0x0 KECCAK256 PUSH1 0x0 SWAP1 SLOAD SWAP1 PUSH2 0x100 EXP SWAP1 DIV PUSH1 0xFF AND PUSH2 0x68D JUMPI PUSH1 0x0 DUP1 REVERT JUMPDEST DUP1 PUSH1 0x4 ADD PUSH1 0x0 CALLER PUSH20 0xFFFFFFFFFFFFFFFFFFFFFFFFFFFFFFFFFFFFFFFF AND PUSH20 0xFFFFFFFFFFFFFFFFFFFFFFFFFFFFFFFFFFFFFFFF AND DUP2 MSTORE PUSH1 0x20 ADD SWAP1 DUP2 MSTORE PUSH1 0x20 ADD PUSH1 0x0 KECCAK256 PUSH1 0x0 SWAP1 SLOAD SWAP1 PUSH2 0x100 EXP SWAP1 DIV PUSH1 0xFF AND ISZERO PUSH2 0x6E6 JUMPI PUSH1 0x0 DUP1 REVERT JUMPDEST DUP1 PUSH1 0x3 ADD PUSH1 0x0 DUP2 SLOAD DUP1 SWAP3 SWAP2 SWAP1 PUSH2 0x6FB SWAP1 PUSH2 0xBED JUMP JUMPDEST SWAP2 SWAP1 POP SSTORE POP PUSH1 0x1 DUP2 PUSH1 0x4 ADD PUSH1 0x0 CALLER PUSH20 0xFFFFFFFFFFFFFFFFFFFFFFFFFFFFFFFFFFFFFFFF AND PUSH20 0xFFFFFFFFFFFFFFFFFFFFFFFFFFFFFFFFFFFFFFFF AND DUP2 MSTORE PUSH1 0x20 ADD SWAP1 DUP2 MSTORE PUSH1 0x20 ADD PUSH1 0x0 KECCAK256 PUSH1 0x0 PUSH2 0x100 EXP DUP2 SLOAD DUP2 PUSH1 0xFF MUL NOT AND SWAP1 DUP4 ISZERO ISZERO MUL OR SWAP1 SSTORE POP POP POP JUMP JUMPDEST DUP3 DUP1 SLOAD PUSH2 0x76A SWAP1 PUSH2 0xB8A JUMP JUMPDEST SWAP1 PUSH1 0x0 MSTORE PUSH1 0x20 PUSH1 0x0 KECCAK256 SWAP1 PUSH1 0x1F ADD PUSH1 0x20 SWAP1 DIV DUP2 ADD SWAP3 DUP3 PUSH2 0x78C JUMPI PUSH1 0x0 DUP6 SSTORE PUSH2 0x7D3 JUMP JUMPDEST DUP3 PUSH1 0x1F LT PUSH2 0x7A5 JUMPI DUP1 MLOAD PUSH1 0xFF NOT AND DUP4 DUP1 ADD OR DUP6 SSTORE PUSH2 0x7D3 JUMP JUMPDEST DUP3 DUP1 ADD PUSH1 0x1 ADD DUP6 SSTORE DUP3 ISZERO PUSH2 0x7D3 JUMPI SWAP2 DUP3 ADD JUMPDEST DUP3 DUP2 GT ISZERO PUSH2 0x7D2 JUMPI DUP3 MLOAD DUP3 SSTORE SWAP2 PUSH1 0x20 ADD SWAP2 SWAP1 PUSH1 0x1 ADD SWAP1 PUSH2 0x7B7 JUMP JUMPDEST JUMPDEST POP SWAP1 POP PUSH2 0x7E0 SWAP2 SWAP1 PUSH2 0x7E4 JUMP JUMPDEST POP SWAP1 JUMP JUMPDEST JUMPDEST DUP1 DUP3 GT ISZERO PUSH2 0x7FD JUMPI PUSH1 0x0 DUP2 PUSH1 0x0 SWAP1 SSTORE POP PUSH1 0x1 ADD PUSH2 0x7E5 JUMP JUMPDEST POP SWAP1 JUMP JUMPDEST PUSH1 0x0 PUSH2 0x814 PUSH2 0x80F DUP5 PUSH2 0xA82 JUMP JUMPDEST PUSH2 0xA5D JUMP JUMPDEST SWAP1 POP DUP3 DUP2 MSTORE PUSH1 0x20 DUP2 ADD DUP5 DUP5 DUP5 ADD GT ISZERO PUSH2 0x82C JUMPI PUSH1 0x0 DUP1 REVERT JUMPDEST PUSH2 0x837 DUP5 DUP3 DUP6 PUSH2 0xB48 JUMP JUMPDEST POP SWAP4 SWAP3 POP POP POP JUMP JUMPDEST PUSH1 0x0 DUP2 CALLDATALOAD SWAP1 POP PUSH2 0x84E DUP2 PUSH2 0xD03 JUMP JUMPDEST SWAP3 SWAP2 POP POP JUMP JUMPDEST PUSH1 0x0 DUP3 PUSH1 0x1F DUP4 ADD SLT PUSH2 0x865 JUMPI PUSH1 0x0 DUP1 REVERT JUMPDEST DUP2 CALLDATALOAD PUSH2 0x875 DUP5 DUP3 PUSH1 0x20 DUP7 ADD PUSH2 0x801 JUMP JUMPDEST SWAP2 POP POP SWAP3 SWAP2 POP POP JUMP JUMPDEST PUSH1 0x0 DUP2 CALLDATALOAD SWAP1 POP PUSH2 0x88D DUP2 PUSH2 0xD1A JUMP JUMPDEST SWAP3 SWAP2 POP POP JUMP JUMPDEST PUSH1 0x0 PUSH1 0x20 DUP3 DUP5 SUB SLT ISZERO PUSH2 0x8A5 JUMPI PUSH1 0x0 DUP1 REVERT JUMPDEST PUSH1 0x0 PUSH2 0x8B3 DUP5 DUP3 DUP6 ADD PUSH2 0x83F JUMP JUMPDEST SWAP2 POP POP SWAP3 SWAP2 POP POP JUMP JUMPDEST PUSH1 0x0 DUP1 PUSH1 0x0 PUSH1 0x60 DUP5 DUP7 SUB SLT ISZERO PUSH2 0x8D1 JUMPI PUSH1 0x0 DUP1 REVERT JUMPDEST PUSH1 0x0 DUP5 ADD CALLDATALOAD PUSH8 0xFFFFFFFFFFFFFFFF DUP2 GT ISZERO PUSH2 0x8EB JUMPI PUSH1 0x0 DUP1 REVERT JUMPDEST PUSH2 0x8F7 DUP7 DUP3 DUP8 ADD PUSH2 0x854 JUMP JUMPDEST SWAP4 POP POP PUSH1 0x20 PUSH2 0x908 DUP7 DUP3 DUP8 ADD PUSH2 0x87E JUMP JUMPDEST SWAP3 POP POP PUSH1 0x40 PUSH2 0x919 DUP7 DUP3 DUP8 ADD PUSH2 0x83F JUMP JUMPDEST SWAP2 POP POP SWAP3 POP SWAP3 POP SWAP3 JUMP JUMPDEST PUSH1 0x0 PUSH1 0x20 DUP3 DUP5 SUB SLT ISZERO PUSH2 0x935 JUMPI PUSH1 0x0 DUP1 REVERT JUMPDEST PUSH1 0x0 PUSH2 0x943 DUP5 DUP3 DUP6 ADD PUSH2 0x87E JUMP JUMPDEST SWAP2 POP POP SWAP3 SWAP2 POP POP JUMP JUMPDEST PUSH2 0x955 DUP2 PUSH2 0xB00 JUMP JUMPDEST DUP3 MSTORE POP POP JUMP JUMPDEST PUSH2 0x964 DUP2 PUSH2 0xB12 JUMP JUMPDEST DUP3 MSTORE POP POP JUMP JUMPDEST PUSH1 0x0 PUSH2 0x975 DUP3 PUSH2 0xAB3 JUMP JUMPDEST PUSH2 0x97F DUP2 DUP6 PUSH2 0xABE JUMP JUMPDEST SWAP4 POP PUSH2 0x98F DUP2 DUP6 PUSH1 0x20 DUP7 ADD PUSH2 0xB57 JUMP JUMPDEST PUSH2 0x998 DUP2 PUSH2 0xCF2 JUMP JUMPDEST DUP5 ADD SWAP2 POP POP SWAP3 SWAP2 POP POP JUMP JUMPDEST PUSH2 0x9AC DUP2 PUSH2 0xB3E JUMP JUMPDEST DUP3 MSTORE POP POP JUMP JUMPDEST PUSH1 0x0 PUSH1 0x20 DUP3 ADD SWAP1 POP PUSH2 0x9C7 PUSH1 0x0 DUP4 ADD DUP5 PUSH2 0x94C JUMP JUMPDEST SWAP3 SWAP2 POP POP JUMP JUMPDEST PUSH1 0x0 PUSH1 0x20 DUP3 ADD SWAP1 POP PUSH2 0x9E2 PUSH1 0x0 DUP4 ADD DUP5 PUSH2 0x95B JUMP JUMPDEST SWAP3 SWAP2 POP POP JUMP JUMPDEST PUSH1 0x0 PUSH1 0xA0 DUP3 ADD SWAP1 POP DUP2 DUP2 SUB PUSH1 0x0 DUP4 ADD MSTORE PUSH2 0xA02 DUP2 DUP9 PUSH2 0x96A JUMP JUMPDEST SWAP1 POP PUSH2 0xA11 PUSH1 0x20 DUP4 ADD DUP8 PUSH2 0x9A3 JUMP JUMPDEST PUSH2 0xA1E PUSH1 0x40 DUP4 ADD DUP7 PUSH2 0x94C JUMP JUMPDEST PUSH2 0xA2B PUSH1 0x60 DUP4 ADD DUP6 PUSH2 0x95B JUMP JUMPDEST PUSH2 0xA38 PUSH1 0x80 DUP4 ADD DUP5 PUSH2 0x9A3 JUMP JUMPDEST SWAP7 SWAP6 POP POP POP POP POP POP JUMP JUMPDEST PUSH1 0x0 PUSH1 0x20 DUP3 ADD SWAP1 POP PUSH2 0xA57 PUSH1 0x0 DUP4 ADD DUP5 PUSH2 0x9A3 JUMP JUMPDEST SWAP3 SWAP2 POP POP JUMP JUMPDEST PUSH1 0x0 PUSH2 0xA67 PUSH2 0xA78 JUMP JUMPDEST SWAP1 POP PUSH2 0xA73 DUP3 DUP3 PUSH2 0xBBC JUMP JUMPDEST SWAP2 SWAP1 POP JUMP JUMPDEST PUSH1 0x0 PUSH1 0x40 MLOAD SWAP1 POP SWAP1 JUMP JUMPDEST PUSH1 0x0 PUSH8 0xFFFFFFFFFFFFFFFF DUP3 GT ISZERO PUSH2 0xA9D JUMPI PUSH2 0xA9C PUSH2 0xCC3 JUMP JUMPDEST JUMPDEST PUSH2 0xAA6 DUP3 PUSH2 0xCF2 JUMP JUMPDEST SWAP1 POP PUSH1 0x20 DUP2 ADD SWAP1 POP SWAP2 SWAP1 POP JUMP JUMPDEST PUSH1 0x0 DUP2 MLOAD SWAP1 POP SWAP2 SWAP1 POP JUMP JUMPDEST PUSH1 0x0 DUP3 DUP3 MSTORE PUSH1 0x20 DUP3 ADD SWAP1 POP SWAP3 SWAP2 POP POP JUMP JUMPDEST PUSH1 0x0 PUSH2 0xADA DUP3 PUSH2 0xB3E JUMP JUMPDEST SWAP2 POP PUSH2 0xAE5 DUP4 PUSH2 0xB3E JUMP JUMPDEST SWAP3 POP DUP3 PUSH2 0xAF5 JUMPI PUSH2 0xAF4 PUSH2 0xC65 JUMP JUMPDEST JUMPDEST DUP3 DUP3 DIV SWAP1 POP SWAP3 SWAP2 POP POP JUMP JUMPDEST PUSH1 0x0 PUSH2 0xB0B DUP3 PUSH2 0xB1E JUMP JUMPDEST SWAP1 POP SWAP2 SWAP1 POP JUMP JUMPDEST PUSH1 0x0 DUP2 ISZERO ISZERO SWAP1 POP SWAP2 SWAP1 POP JUMP JUMPDEST PUSH1 0x0 PUSH20 0xFFFFFFFFFFFFFFFFFFFFFFFFFFFFFFFFFFFFFFFF DUP3 AND SWAP1 POP SWAP2 SWAP1 POP JUMP JUMPDEST PUSH1 0x0 DUP2 SWAP1 POP SWAP2 SWAP1 POP JUMP JUMPDEST DUP3 DUP2 DUP4 CALLDATACOPY PUSH1 0x0 DUP4 DUP4 ADD MSTORE POP POP POP JUMP JUMPDEST PUSH1 0x0 JUMPDEST DUP4 DUP2 LT ISZERO PUSH2 0xB75 JUMPI DUP1 DUP3 ADD MLOAD DUP2 DUP5 ADD MSTORE PUSH1 0x20 DUP2 ADD SWAP1 POP PUSH2 0xB5A JUMP JUMPDEST DUP4 DUP2 GT ISZERO PUSH2 0xB84 JUMPI PUSH1 0x0 DUP5 DUP5 ADD MSTORE JUMPDEST POP POP POP POP JUMP JUMPDEST PUSH1 0x0 PUSH1 0x2 DUP3 DIV SWAP1 POP PUSH1 0x1 DUP3 AND DUP1 PUSH2 0xBA2 JUMPI PUSH1 0x7F DUP3 AND SWAP2 POP JUMPDEST PUSH1 0x20 DUP3 LT DUP2 EQ ISZERO PUSH2 0xBB6 JUMPI PUSH2 0xBB5 PUSH2 0xC94 JUMP JUMPDEST JUMPDEST POP SWAP2 SWAP1 POP JUMP JUMPDEST PUSH2 0xBC5 DUP3 PUSH2 0xCF2 JUMP JUMPDEST DUP2 ADD DUP2 DUP2 LT PUSH8 0xFFFFFFFFFFFFFFFF DUP3 GT OR ISZERO PUSH2 0xBE4 JUMPI PUSH2 0xBE3 PUSH2 0xCC3 JUMP JUMPDEST JUMPDEST DUP1 PUSH1 0x40 MSTORE POP POP POP JUMP JUMPDEST PUSH1 0x0 PUSH2 0xBF8 DUP3 PUSH2 0xB3E JUMP JUMPDEST SWAP2 POP PUSH32 0xFFFFFFFFFFFFFFFFFFFFFFFFFFFFFFFFFFFFFFFFFFFFFFFFFFFFFFFFFFFFFFFF DUP3 EQ ISZERO PUSH2 0xC2B JUMPI PUSH2 0xC2A PUSH2 0xC36 JUMP JUMPDEST JUMPDEST PUSH1 0x1 DUP3 ADD SWAP1 POP SWAP2 SWAP1 POP JUMP JUMPDEST PUSH32 0x4E487B7100000000000000000000000000000000000000000000000000000000 PUSH1 0x0 MSTORE PUSH1 0x11 PUSH1 0x4 MSTORE PUSH1 0x24 PUSH1 0x0 REVERT JUMPDEST PUSH32 0x4E487B7100000000000000000000000000000000000000000000000000000000 PUSH1 0x0 MSTORE PUSH1 0x12 PUSH1 0x4 MSTORE PUSH1 0x24 PUSH1 0x0 REVERT JUMPDEST PUSH32 0x4E487B7100000000000000000000000000000000000000000000000000000000 PUSH1 0x0 MSTORE PUSH1 0x22 PUSH1 0x4 MSTORE PUSH1 0x24 PUSH1 0x0 REVERT JUMPDEST PUSH32 0x4E487B7100000000000000000000000000000000000000000000000000000000 PUSH1 0x0 MSTORE PUSH1 0x41 PUSH1 0x4 MSTORE PUSH1 0x24 PUSH1 0x0 REVERT JUMPDEST PUSH1 0x0 PUSH1 0x1F NOT PUSH1 0x1F DUP4 ADD AND SWAP1 POP SWAP2 SWAP1 POP JUMP JUMPDEST PUSH2 0xD0C DUP2 PUSH2 0xB00 JUMP JUMPDEST DUP2 EQ PUSH2 0xD17 JUMPI PUSH1 0x0 DUP1 REVERT JUMPDEST POP JUMP JUMPDEST PUSH2 0xD23 DUP2 PUSH2 0xB3E JUMP JUMPDEST DUP2 EQ PUSH2 0xD2E JUMPI PUSH1 0x0 DUP1 REVERT JUMPDEST POP JUMP INVALID LOG2 PUSH5 0x6970667358 0x22 SLT KECCAK256 DIV 0xC8 0x5E 0xF 0xF6 0xE4 REVERT 0xFB 0xEC 0xBB NOT CALL 0x22 OR 0xE PUSH3 0x37354B SWAP8 0xF SELFBALANCE SELFBALANCE SLT SWAP2 MSTORE8 0xFB 0xE2 0xE1 PUSH17 0x453D64736F6C63430008030033A2646970 PUSH7 0x7358221220AFC3 0xC7 RETURNDATACOPY 0xE9 GAS 0xA6 0xF6 0xBC 0xD6 SHL SWAP6 BYTE 0xC4 CREATE MUL 0x29 0xAB EXTCODEHASH SLOAD 0xD3 PUSH28 0xD2854A7E93CD892BA23764736F6C6343000803003300000000000000 "
    },
    "gasEstimates": {
      "creation": {
        "codeDepositCost": "986800",
        "executionCost": "1027",
        "totalCost": "987827"
      },
      "external": {
        "campaigns(uint256)": "2377",
        "createCampaign(uint256)": "infinite",
        "getDeployedCampaigns()": "infinite"
      }
    },
    "methodIdentifiers": {
      "campaigns(uint256)": "141961bc",
      "createCampaign(uint256)": "a3303a75",
      "getDeployedCampaigns()": "4acb9d4f"
    }
  },
  "storageLayout": {
    "storage": [
      {
        "astId": 5,
        "contract": "Campaign.sol:Factory",
        "label": "campaigns",
        "offset": 0,
        "slot": "0",
        "type": "t_array(t_contract(Campaign)260)dyn_storage"
      }
    ],
    "types": {
      "t_array(t_contract(Campaign)260)dyn_storage": {
        "base": "t_contract(Campaign)260",
        "encoding": "dynamic_array",
        "label": "contract Campaign[]",
        "numberOfBytes": "32"
      },
      "t_contract(Campaign)260": {
        "encoding": "inplace",
        "label": "contract Campaign",
        "numberOfBytes": "20"
      }
    }
  },
  "userdoc": {
    "kind": "user",
    "methods": {},
    "version": 1
  }
}